:020000040800F2
:10000000E0AF0020D96400080505000807050008D6
:100010000B0500080F05000813050008000000008C
:1000200000000000000000000000000017050008AC
:1000300019050008000000001B0500081D05000848
:10004000F3640008F3640008F364000881620008A8
:10005000F3640008F3640008F3640008F364000824
:10006000F3640008F3640008F3640008F364000814
:10007000F3640008F3640008F3640008F364000804
:10008000F3640008F3640008F3640008F3640008F4
:10009000F3640008F3640008F3640008F3640008E4
:1000A000F3640008F3640008F3640008F3640008D4
:1000B000F3640008F3640008094A0008F3640008C8
:1000C000F3640008F3640008F3640008F3640008B4
:1000D000F36400084F640008F3640008F364000848
:1000E000F3640008F3640008F3640008F364000894
:1000F000F3640008F3640008F3640008F364000884
:10010000F3640008F3640008F3640008F364000873
:10011000F3640008F3640008F3640008F364000863
:10012000F3640008F3640008F3640008F364000853
:1001300000F002F800F06BF80AA090E8000C82448E
:100140008344AAF10107DA4501D100F060F8AFF26B
:10015000090EBAE80F0013F0010F18BFFB1A43F0A5
:1001600001031847783B0300983B03000A444FF013
:10017000000C10F8013B13F0070408BF10F8014B06
:100180001D1108BF10F8015B641E05D010F8016B4B
:10019000641E01F8016BF9D113F0080F1EBF10F8AF
:1001A000014BAD1C0C1B09D16D1E58BF01F801CBD2
:1001B000FAD505E014F8016B01F8016B6D1EF9D555
:1001C0009142D6D37047000000230024002500266A
:1001D000103A28BF78C1FBD8520728BF30C148BFAA
:1001E0000B607047642908F0CB82752908F0C8823B
:1001F000782908F00183632908F0D784732908F06F
:10020000DC84002070471FB51FBD10B510BD08F07D
:10021000EFFC1146FFF7F7FF00F008F808F00DFDBE
:1002200003B4FFF7F2FF03BC06F0B6F8A0B066A176
:1002300003C9CDE91E0166A000681D9000240D25AC
:100240004FF4A06006F0ECFE06F03CF84FF4E1300D
:1002500006F0B1F805F0ACFD5E48416848208847DB
:1002600008F063F909E05CA008F01AFA4FF448704E
:1002700006F065F85CA008F013FA05F0A2FF00286C
:10028000F1D106E05CA008F00BFA4FF4FA6006F03A
:1002900056F800F0F0FB0028F4D105F089FD5A492A
:1002A0000122086859A102F00EF857490122486856
:1002B00057A102F008F806E056A008F0F1F94FF453
:1002C000FA6006F03CF81BAA1CA956A005F00DFE2A
:1002D0000028F1D15448407853490978524AD279DC
:1002E000CDE9002102905048837982884FA107A868
:1002F00008F0E2F92A4658A104A808F0DDF9042123
:1003000007A805F003FA0A2006F019F805F00AFA22
:10031000022107A805F0FAF90A2006F010F84F4963
:1003200007A802F0CCFC4D48046821464CA008F018
:10033000B7F952A002F02BFE44E0022107A805F015
:10034000E5F9322005F0FBFF204605F057FB0821B8
:100350001EA805F05EFA082107A805F05AFA022146
:100360001DA805F056FA322005F0E9FF05F04EFB16
:1003700005F04CFB0446214642A008F091F905F037
:10038000D1F94FF47A6005F0DAFF27484078264922
:100390000978CDE900102448C3798279818843A087
:1003A00008F07EF9204880781F4949781E4A127863
:1003B000CDE9002102901C48C3798279818846A04A
:1003C00008F06EF9B9E70000CDFEB7E7CDFEB7E75C
:1003D0000D0A000010010020525443204552524F94
:1003E0005221202020000000525443205472796989
:1003F0006E672E2E2E00000053442043617264204D
:100400004572726F7221000040030020303A0000F4
:10041000313A00004661746673204572726F722132
:100420000000000030000000EC130020303A2F25BF
:10043000303464C4EA25303264D4C225303264C812
:10044000D525303264CAB125303264B7D6CAFDBE74
:10045000DD2E74787400000025640000A8130020CD
:100460000D0AB6CFB5E7C7B0D0B4C8EBCEBBD6C384
:1004700020A3BA2564200D0A00000000303A54453C
:10048000585400000D0AB5B1C7B0D2D1D0B4C8EBF2
:10049000B5C4CAFDBEDDB5C4C4A9B6CBCEBBD6C3F8
:1004A000203D202564200D0A00000000D2D1B4B404
:1004B000BDA825303464C4EA25303264D4C2253066
:1004C0003264C8D525303264CAB125303264B7D61B
:1004D000CAFDBEDD0A000000CFD6D4DAB5C4CAB169
:1004E000BCE4CAC7A3BA2564C4EA2564D4C225649F
:1004F000C8D52564CAB12564B7D62564C3EB0A0AFA
:1005000000000000704700BFFEE700BFFEE700BF2D
:10051000FEE700BFFEE77047704770477047000076
:100520000CB50020019000906C48006840F48030C9
:100530006A49086000BF6948006800F40030009014
:100540000198401C0190009818B90198B0F5A06F6F
:10055000F1D16248006800F4003010B10120009031
:1005600001E0002000900098012843D15C48006819
:1005700040F010005A4908600846006820F0030067
:1005800008600846006840F0020008605348406870
:10059000524948600846406848600846406840F450
:1005A000806048600846406820F47C104860084637
:1005B000406840F4E81048600846006840F08070E9
:1005C000086000BF4548006800F000700028F9D0BE
:1005D0004248406820F003004049486008464068AF
:1005E00040F00200486000BF3C48406800F00C004A
:1005F0000828F9D10CBD10B5FFF792FF10BD10B55A
:100600003648006840F001003449086008464068F8
:10061000344908403149486008460068324908407A
:100620002E4908600846006820F4802008600846CB
:10063000406820F4FE0048604FF41F008860FFF718
:10064000DAFF4FF000602949086010BD10B50021A5
:1006500000200022214B5B6803F00C0121B104292A
:1006600006D0082928D107E0214B224C236027E03F
:100670001F4B204C236023E0184B5B6803F4701081
:10068000164B5B6803F48032022303EB904022B9DF
:10069000194B4343174C23600DE0104B5B6803F488
:1006A000003323B1144B4343124C236003E0104B3F
:1006B0004343104C236003E00D4B0E4C236000BFFE
:1006C00000BF064B5B68C3F303130C4CE15C094BA2
:1006D0001B68CB40074C236010BD00000010024097
:1006E000002002400000FFF8FFFFF6FE08ED00E0EA
:1006F00000127A000000002000093D0004000020E4
:1007000070B50546002405E0601CC4B2C82C01DDAC
:10071000002070BD02212F4806F03FFE0028F3D0D4
:1007200029462C4806F0E6FD002405E0601CC4B212
:10073000C82C01DD0020ECE70121264806F02DFE43
:100740000028F3D0234806F0D7FDC0B2E1E708B592
:10075000012141F2040006F0FBF9E020ADF80000B1
:1007600018208DF8030003208DF8020069461A480E
:1007700005F032FFE021184805F0DBFF00201749A3
:1007800008804FF482704880002088800220C88052
:100790000120088140024881382088810020C881DA
:1007A000072008820B4806F0CFFC0121094806F01B
:1007B00070FDFF20FFF7A4FF08BD10B504460748F1
:1007C00084810146034806F0BFFC0121014806F080
:1007D00060FD10BD0030014000080140940300207E
:1007E00010B504462046FFF78BFF10BD10B538202A
:1007F000FFF7E3FF10BD10B50020FFF7DEFF10BDCF
:1008000008B50121042006F0A3F91C20ADF8000072
:1008100010208DF8030003208DF802006946F64889
:1008200005F0DAFE1C21F44805F083FFFFF78FFF87
:100830000120F249086008BD10B50120EF490860A9
:10084000FF20FFF7CDFF10BD10B5002400BFFF2033
:10085000FFF7C6FFFF2801D1002010BD641C6FF018
:100860007F408442F3D30120F7E710B50020E3492D
:100870000860FFF7E9FF08B9002010BDFFF7DCFFB3
:100880000120FAE770B505464FF6FF7401E0601EDF
:1008900084B2FF20FFF7A4FFA84201D0002CF6D1BC
:1008A0000CB9FF2070BD0020FCE770B504460D4672
:1008B000FE20FFF7E7FF08B1012070BD04E0FF2034
:1008C000FFF71EFF2070641C2800A5F101018DB206
:1008D000F5D1FF20FFF784FFFF20FFF781FF002005
:1008E000EBE770B506460D46FFF7AEFF08B10120F5
:1008F00070BD2846FFF774FFFD2D19D0002404E0D9
:10090000305DFFF7FDFE601C84B2B4F5007FF7DBBD
:10091000FF20FFF765FFFF20FFF762FFFF20FFF7D3
:100920005FFF044604F01F00052801D00220DFE726
:100930000020DDE72DE9F04105460C4617464FF053
:100940000008FFF779FFFFF790FF10B1FF20BDE827
:10095000F08145F04000FFF743FF200EFFF740FF16
:10096000C4F30740FFF73CFFC4F30720FFF738FF4D
:10097000E0B2FFF735FF3846FFF732FF0C2D02D10A
:10098000FF20FFF72DFF4FF01F0800BFFF20FFF7EC
:1009900027FF064606F0800030B15FEA0800A8F1A4
:1009A000010101F0FF08F1D13046D0E770B50546EE
:1009B000012200210A20FFF7BDFF044624B91021BF
:1009C0002846FFF772FF0446FFF736FF0CB10120FF
:1009D00070BD0020FCE770B505460122002109200A
:1009E000FFF7A8FF044624B910212846FFF75DFF52
:1009F0000446FFF721FF0CB1012070BD0020FCE789
:100A00007FB56846FFF7E7FF10B1002004B070BD66
:100A10009DF8000000F0C000402809D19DF80900B1
:100A20009DF8081000EB0120401C84B2A50220E0D4
:100A30009DF8050000F00F009DF80A1000EBD110A2
:100A40009DF8091001F0030100EB4100861C9DF8A0
:100A5000080080119DF8071000EB81009DF806103A
:100A600001F0030100EB8120441CA6F1090004FA07
:100A700000F52846CAE7F8B5FFF7C2FEFFF7B6FE55
:100A8000002504E0FF20FFF7ABFE681C85B20A2DAD
:100A9000F8DB142600BF952200210846FFF74AFF25
:100AA0000446012C04D03000A6F101018EB2F2D12F
:100AB000002053490870012C4AD187224FF4D57188
:100AC0000820FFF737FF012847D1002506E0FF2067
:100AD000FFF786FE0DF80500681C85B2042DF6DBD5
:100AE0009DF80200012879D19DF80300AA2875D14C
:100AF0004FF6FE7600BF012200213720FFF71AFFD4
:100B0000012291072920FFF715FF044624B1300088
:100B1000A6F101018EB2EED1002E5FD0012200219C
:100B20003A20FFF707FF002858D1002506E0FF20F4
:100B3000FFF756FE0DF80500681C85B2042DF6DBA4
:100B40009DF8000000F0400018B106202C49087004
:100B500044E004202A49087040E0012200213720A7
:100B6000FFF7E8FE012200212920FFF7E3FE0446FB
:100B7000012C17DC0220224908704FF6FE7600BFD8
:100B8000012200213720FFF7D5FE01220021292074
:100B9000FFF7D0FE0446BCB13000A6F101018EB2D1
:100BA000EED111E00120164908704FF6FE7600BF25
:100BB000012200211046FFF7BDFE044624B130009B
:100BC000A6F101018EB2F3D12EB101225102102003
:100BD000FFF7B0FE10B1002009490870FFF72CFEA6
:100BE000FFF709FE0648007808B10020F8BD0CB1F7
:100BF0002046FBE7AA20F9E70008014090012142C6
:100C0000140000202DE9F04106460F4615463C48E9
:100C10000078062800D07F02012D0CD10122394630
:100C20001120FFF787FE0446FCB969023046FFF742
:100C30003CFE044619E0012239461220FFF77AFEF5
:100C4000044600BF4FF400713046FFF72EFE044605
:100C500006F50076681EC0B2050001D0002CF1D068
:100C6000012200210C20FFF765FEFFF7E5FD20467D
:100C7000BDE8F0812DE9F04106460F4615462048B3
:100C80000078062800D07F02012D0CD101223946C0
:100C90001820FFF74FFE04466CBBFE213046FFF7DD
:100CA00020FE044627E016480078012809D00122DA
:100CB00000213720FFF73EFE012229461720FFF7CB
:100CC00039FE012239461920FFF734FE044694B953
:100CD00000BFFC213046FFF704FE044606F500760F
:100CE000681EC0B2050001D0002CF2D0FD2100200A
:100CF000FFF7F7FD0446FFF79FFD2046BDE8F081B2
:100D00001400002070B503460C4603E014F8015BA4
:100D100003F8015B1500A2F10102F7D170BD30B5F7
:100D2000034601E003F8011B1400A2F10102F9D10E
:100D300030BDF0B503461C460D46002000BF16002E
:100D4000A2F1010207D014F8017B15F801CBA7EB43
:100D50000C063000F3D0F0BD024600E0521C1078C3
:100D600010B110788842F9D11078704770B50446F8
:100D70002079F8B1E56A607801232A4604F1300150
:100D800004F028FC08B1012070BD00202071206A09
:100D9000281AA16988420DD2E67809E0A0690544C5
:100DA000607801232A4604F1300104F013FC761E1A
:100DB000022EF3D20020E7E770B504460D46E06A44
:100DC000A84210D02046FFF7D1FF08B1012070BD26
:100DD000607801232A4604F1300104F0C0FB08B119
:100DE0000120F4E7E5620020F1E770B504462046F3
:100DF000FFF7BCFF0546002D59D1207803284FD1BD
:100E0000607901284CD14202002104F13000FFF743
:100E100086FF552184F82E12AA2184F82F12522021
:100E200084F83000522131200155612132200155D2
:100E3000412133200155722184F8141284F81512CF
:100E4000412184F81612612184F81712217C84F85C
:100E50001812208A010A84F819122069010C84F8FA
:100E60001A122069010E84F81B12217B84F81C12CF
:100E7000A089010A84F81D12E068010C84F81E1292
:100E8000E068010E84F81F12E069401CE06260789F
:100E9000012304F13001E26A04F09CFB0020607140
:100EA00060780022114604F0C6FB00B101252846F7
:100EB00070BD0246891E5069801E884201D80020FC
:100EC00070479378906A01FB0300F9E72DE9F04140
:100ED00005460C46022C02D36869A04202D80120C4
:100EE000BDE8F0812878012804D002282CD00328FE
:100EF0005AD13DE0274607EB5707286A00EB5721F8
:100F00002846FFF759FF00B150E0C7F3080105F18B
:100F1000300010F801807F1C286A00EB572128461A
:100F2000FFF74AFF00B141E0C7F3080105F13000C7
:100F3000405C48EA002804F0010010B14FEA1810A4
:100F4000CEE7C8F30B00CBE7286A00EB1421284654
:100F5000FFF732FF00B129E040F2FF1000EA440140
:100F600005F130000E183078717840EA0120B7E7BB
:100F7000286A00EBD4112846FFF71EFF00B115E0E8
:100F800040F2FF1000EA840105F130000E18F078FD
:100F90000006B17840EA0140717840EA01203178DA
:100FA000084320F070409BE7012099E700BF4FF015
:100FB000FF3095E72DE9F04705460E461746022E0D
:100FC00002D36869B04202D84FF002088AE028785C
:100FD000012804D0022841D003287DD154E0B14635
:100FE00009EB5909286A00EB59212846FFF7E4FE6E
:100FF0008046B8F1000F00D071E0C9F3080105F197
:1010000030000C1806F0010020B1F9B2207861F32D
:101010001F1000E03846207009F1010901202871F5
:10102000286A00EB59212846FFF7C6FE8046B8F132
:10103000000F00D053E0C9F3080105F130000C188F
:1010400006F0010010B1C7F3071005E0207800F0AA
:10105000F000C7F303210843207040E0286A00EB4A
:1010600016212846FFF7A8FE8046B8F1000F00D0F1
:1010700035E040F2FF1000EA460105F130000C189F
:101080002770380A60702AE0286A00EBD6112846DB
:10109000FFF792FE8046B8F1000F00D01FE040F24B
:1010A000FF1000EA860105F130000C18E078000618
:1010B000A17840EA0140617840EA012021780843A4
:1010C00000F0704007432770380A6070380CA07039
:1010D000380EE07003E0FFE74FF0020800BF00BFEA
:1010E000012028714046BDE8F0872DE9F041044613
:1010F0000E46022E02D36069B04201D8022727E0D3
:10110000002721E031462046FFF7E0FE054605B9FD
:101110001DE0012D01D1022719E0681C08B9012743
:1011200015E0002231462046FFF744FF074607B18D
:101130000DE02069401C30B12069401C20616079BD
:1011400040F0010060712E466069B042DAD800BFFD
:101150003846BDE8F0812DE9F04704468946B9F1EB
:10116000000F06D1E76817B16069B84215D80127AA
:1011700013E049462046FFF7A9FE0646022E02D29A
:101180000120BDE8F087701C08B93046F9E76069B6
:10119000B04201D93046F4E74F463D4600BF6D1CD2
:1011A0006069A84204D80225BD4201D90020E8E7C1
:1011B00029462046FFF78AFE064606B909E0701C5C
:1011C00008B1012E01D13046DBE7BD42E7D1002056
:1011D000D7E700BF6FF0704229462046FFF7EAFECE
:1011E0008046B8F1000F08D1B9F1000F05D02A46AA
:1011F00049462046FFF7DEFE8046B8F1000F0BD1CE
:10120000E5602069401C78B12069401E206160794A
:1012100040F00100607107E0B8F1010F02D14FF01A
:10122000FF3000E0012005462846AAE770B50346D6
:101230000D46586A021D680A1E68B678B0FBF6F4BF
:1012400000BF02CA09B9002070BD8C4200D202E082
:10125000641A121DF5E700BF10682044F4E72DE979
:10126000F04104460E46E680A568012D03D02068B3
:101270004069A84202D80220BDE8F0812DB920685B
:101280000078032801D12068456A45B920680089A3
:10129000B04201D80220EFE72068476A1EE02068CC
:1012A00080784FEA001812E029462068FFF70EFE0A
:1012B0000546681C08B90120DEE7022D03D320682B
:1012C0004069A84201D80220D6E7A6EB08064645A9
:1012D000EAD229462068FFF7ECFD0746E5600FB922
:1012E0000220C9E707EB161020612068303006F0B5
:1012F0000F0100EB411060610020BDE72DE9F041D6
:1013000004468846E088461CB0B208B1206910B98E
:101310000420BDE8F08106F00F0000286CD12069A0
:10132000401C2061E06828B920680089B04263D879
:101330000420EEE720688078401E00EA161000289E
:101340005AD1E1682068FFF7C1FD0546012D01D89B
:101350000220DEE7681C08B90120DAE7206840694E
:10136000A84243D8B8F1000F01D10420D1E7E168C9
:101370002068FFF7F0FE05460DB90720C9E7012DEB
:1013800001D10220C5E7681C08B90120C1E7206827
:10139000FFF7ECFC08B10120BBE7216801F1300048
:1013A0004FF400720021FFF7BAFC29462068FFF7CE
:1013B00080FD2168C86200270EE0012021680871C5
:1013C0002068FFF7D3FC08B10120A2E72068C06ABB
:1013D000401C2168C8627F1C20688078B842ECD825
:1013E0002068C06AC01B2168C86200BFE56029464A
:1013F0002068FFF75EFD2061E6802068303006F04F
:101400000F0100EB41106061002082E72DE9F041FF
:1014100004460E4600212046FFF721FF0546EDB9A0
:10142000002700BF21692068FFF7C6FC054605B10B
:1014300013E060690078E52802D06069007820B97F
:10144000781C0746B04201D107E000270121204661
:10145000FFF754FF0546002DE4D000BF042D00D156
:1014600007252846BDE8F08110B502468C7ECB7E6C
:1014700044EA03201378032B05D10C7D4B7D44EA0D
:10148000032340EA034010BD81760B0AC3760A0CA1
:1014900002750B0E437570472DE9F04705460C4663
:1014A000207820F04000401E00EB800101EBC006D8
:1014B00000274FF0010800BFFE48C05D205CFD49D9
:1014C000C95D2144497840EA0129B8F1000F10D0E4
:1014D000484602F09DFD8046FF2E07D23146761C1D
:1014E00035F8110002F094FD404508D00020BDE819
:1014F000F0874FF6FF70814501D00020F7E7781C98
:1015000007460D28D8D3207800F0400038B1B8F154
:10151000000F04D035F8160008B10020E7E70120DD
:10152000E5E7F0B50346087800F03F00401E00EB09
:10153000800707EBC0020025012600BFDD48405DA3
:10154000085CDC4F7F5D0F447F7840EA07244EB192
:10155000FF2A01D30020F0BD26461046521C23F876
:10156000104005E04FF6FF70844201D00020F2E702
:10157000681C05460D28E1D3087800F0400030B122
:10158000FF2A01D30020E6E7002023F81200012003
:10159000E1E7F0B504461D464D730F27CF720027D3
:1015A0000F738F76BC4681F81BC0571E07EB870C64
:1015B0000CEBC706002738463B4600BF4FF6FF77C7
:1015C000B84203D03746761C34F81700DFF8E4C27F
:1015D0001CF803C001F80C000712DFF8D8C21CF891
:1015E00003C08C448CF8017008B94FF6FF705F1C83
:1015F0003B460D2FE2D34FF6FF77B84202D034F8C6
:1016000016700FB942F040020A70F0BD2DE9FC4798
:1016100007468A4690461E460B2251463846FFF73B
:1016200071FB052E18D9304610E038F8021B002552
:101630000AE00A4660F35F021046491000F4803267
:101640000AB19D4A50406D1C102DF2D3B8F800200D
:10165000002AEAD1064600BF072500BF06F00F00AA
:1016600000F13009B9F1390F03DD09F1070000F08D
:10167000FF0928466D1E0DF800903609002EEDD1A9
:101680007E200DF8050000240BE0385D812807DB83
:10169000385DFE2804DC681EA04200D106E0641C10
:1016A000641CAC4202D2385D2028EED100BF00BFDE
:1016B000082D04D228466D1C1DF8001000E02021E2
:1016C0002046641C3954082CF2D3BDE8FC8730B5A1
:1016D000014600200B2200BF431003EBC01411F899
:1016E000015B6319D8B2531E1A00F5D130BD2DE944
:1016F000F047044600212046FFF7B1FD074617B129
:101700003846BDE8F0874FF0FF09CA4600BF21699F
:101710002068FFF751FB074607B154E065692E7852
:101720000EB904274FE0E87A00F03F08E52E05D017
:1017300008F0080028B1B8F10F0F02D04FF0FF09F0
:101740003AE0B8F10F0F1CD1E069A0B306F04000F9
:1017500030B195F80DA026F04006B146E08820840F
:101760004E450AD1687B504507D12946E069FFF70D
:1017700093FE10B1A9F1010000E0FF2000F0FF0985
:101780001AE0B9F1000F05D12846FFF7A0FF504538
:1017900000D118E04FF0FF094FF6FF702084A069D8
:1017A000C07A00F0010030B90B222846A169FFF78A
:1017B000C0FA00B907E0FFE700212046FFF79EFDD1
:1017C0000746002FA3D000BF38469AE72DE9F05F07
:1017D00004468A464FF0FF09CB4604274EE02169B4
:1017E0002068FFF7E9FA074607B14AE066693578ED
:1017F0000DB9042745E0F07A00F03F08E52D09D047
:101800002E2D07D0B8F1080F01D1012000E00020F3
:10181000504502D04FF0FF0929E0B8F10F0F1AD15F
:1018200005F0400030B196F80DB025F04005A9460E
:10183000E08820844D450AD1707B584507D1314658
:10184000E069FFF76EFE10B1A9F1010000E0FF2092
:1018500000F0FF090BE0B9F1000F04D13046FFF7AB
:1018600036FF584502D04FF6FF70208409E0002172
:101870002046FFF743FD074607B102E02069002834
:10188000ADD100BF0FB1002020613846BDE8F09F08
:101890002DE9FE4F0446D4F81880D4F81C900C2291
:1018A00041466846FFF72EFA00BF9DF80B0000F096
:1018B000010003E05E8C00082110010020B300202D
:1018C00088F80B00E06101260CE033464A46694681
:1018D0004046FFF79BFE2046FFF709FF054605B18E
:1018E00002E0761C642EF0D300BF642E02D10720E4
:1018F000BDE8FE8F042D01D02846F9E79DF80B00C6
:1019000088F80B00C4F81C909DF80B0000F0020052
:1019100060B1002600E0761C39F816000028FAD1E4
:1019200006F119000D21B0FBF1F700E0012739465F
:101930002046FFF76BFD054645BB781E070025D006
:10194000E088C11B2046FFF78AFC0546F5B9A0696F
:10195000FFF7BDFE824600BF21692068FFF72CFA21
:10196000054605B111E0FAB253466169E069FFF737
:1019700010FE01202168087100212046FFF7BEFCFF
:10198000054615B9781E0700E6D100BFC5B9216923
:101990002068FFF711FA054695B9202200216069F9
:1019A000FFF7BDF90B22D4E90501FFF7ABF9A069F8
:1019B000C07A00F01800616908730120216808717D
:1019C000284695E770B50446E688208C4FF6FF72EE
:1019D000904201D1304600E0208C01462046FFF7BE
:1019E0003EFC05460DBB00BF21692068FFF7E4F906
:1019F000054605B115E0202200216069FFF78FF947
:101A0000E52061690870012021680871E088B04212
:101A100000D306E000212046FFF770FC0546002DAC
:101A2000E2D000BF042D00D10225284670BD2DE96B
:101A3000F04707460C4604F109063869002843D0F0
:101A40007869002526E029466D1C10F80180B8F160
:101A5000200F00D11EE0B8F1050F01D14FF0E508CD
:101A6000092D02D12E2106F8011BB8F1410F0EDB22
:101A7000B8F15A0F0BDC017B092D01D3102200E0D5
:101A80000822114019B108F1200101F0FF0806F801
:101A9000018B00BF0B2DD6D3C17A2172C17F0A06FC
:101AA000817F42EA0142417F42EA0121027F1143E4
:101AB0002160027E417E42EA0121A180827DC17DBA
:101AC00042EA0121E18000BF00203070A06990B39C
:101AD0000025A669386958B3E06948B3388C4FF6D9
:101AE000FF71884224D0D7F81CA01BE00021484693
:101AF00002F054FA8146B9F1000F01D1002516E039
:101B0000B9F1FF0F04DD4FEA292228466D1C32543B
:101B1000E069401EA84201D8002508E028466D1C57
:101B200006F800903AF8021B5FEA0109DED100BF17
:101B30000020705500BFBDE8F0872DE9F34F83B05A
:101B4000814604980068019002E00198401C0190D1
:101B5000019800782F28F8D0019800785C28F4D0FC
:101B6000D9F81CA000252F4600BF38467F1C0199DC
:101B70000C5C202C03DB2F2C01D05C2C00D132E03C
:101B8000FF2D03D3062005B0BDE8F08FE4B2812C11
:101B900013DBE0B2FE2810DC38467F1C01990E5C96
:101BA000402E01DB7E2E05DD802E01DBFE2E01DDC9
:101BB0000620E8E706EB042084B20121204602F06B
:101BC000EDF904460CB90620DDE7802C06DA214643
:101BD000F9A0FFF7C1F808B10620D4E728466D1C2C
:101BE0002AF81040C1E700BF0198C11904980160AC
:101BF000202C01DA042000E00020804608E0681E66
:101C00003AF81040202C02D02E2C00D002E06D1E9D
:101C1000002DF4D100BF0DB90620B4E700202AF84A
:101C200015000B222021D9F81800FFF778F80027BB
:101C300000E07F1C3AF817002028FAD03AF8170085
:101C40002E28F6D00FB148F0030800E06D1E25B134
:101C5000681E3AF810002E28F8D10020064602909F
:101C60004FF0080B00BF38467F1C3AF8104004B90B
:101C700063E0202C03D02E2C04D1AF4202D048F0D8
:101C80000308F0E70298584501D2AF4214D1BBF1E6
:101C90000B0F02D148F003084FE0AF4201D048F0EB
:101CA0000308AF4200D948E02F46082002904FF0C9
:101CB0000B0BB006060ED6E7802C09DB204602F09F
:101CC000A7F90021009002F069F9044648F00208E3
:101CD000FF2C11DDABF101000299884204D848F0D5
:101CE0000308CDF808B0BEE72212D9F818300298E0
:101CF000411C02911A5419E024B12146B1A0FFF70A
:101D00002BF818B15F2448F003080FE0412C04DBE6
:101D10005A2C02DC46F0020608E0612C06DB7A2C25
:101D200004DC46F00106A4F1200084B2D9F8183092
:101D30000298411C02911C5495E700BFD9F8180085
:101D40000078E52803D10520D9F818100870BBF1F8
:101D5000080F01D1B006060E06F00C000C2803D0C7
:101D600006F00300032801D148F0020808F0020041
:101D700058B906F00300012801D148F0100806F018
:101D80000C00042801D148F00808D9F8180080F8A0
:101D90000B800020F7E62DE9F34104460198007816
:101DA0002F2803D0019800785C2802D10198401CAC
:101DB00001900020A06001980078202807D200211F
:101DC0002046FFF74CFA05460020606128E000BF7E
:101DD00001A92046FFF7B1FE054605B11FE02046E8
:101DE000FFF785FC0546A069C67A3DB1042D04D1F4
:101DF00000BF06F0040000B9052510E006F004005D
:101E000000B10CE06769F87A00F0100008B9052508
:101E100005E039462068FFF727FBA060D8E700BF40
:101E20002846BDE8FC8170B502464FF0FF301568CA
:101E3000E5B1116800E0491C0D78202D02D30D7822
:101E40003A2DF8D10D783A2D0FD1146814F8015BB2
:101E5000A5F130030A2B07D28C4205D1022B03D205
:101E600018464D1C2946156070BD002000BFFBE7D9
:101E700070B504460D4600202071401EE0622946E0
:101E80002046FEF799FF08B1032070BD94F82E128A
:101E900094F82F0241EA00204AF65521884201D0E9
:101EA0000220F2E794F86900010694F8680041EA1C
:101EB000004194F8670041EA002094F86610084356
:101EC00020F07F404149884201D10020DDE794F8AD
:101ED0008500010694F8840041EA004194F88300EB
:101EE00041EA002094F88210084320F07F403749EF
:101EF000884201D10020C8E70120C6E72DE9F74F4D
:101F000088B00021089801600998FFF78CFF0790BE
:101F10000798002803DA0B200BB0BDE8F08F2C499E
:101F2000079851F820400CB90C20F5E70898046098
:101F3000207878B1607803F00FFB804608F001004C
:101F400040B90A9820B108F0040008B10A20E3E77C
:101F50000020E1E70020207007986070607803F0AF
:101F6000CFFA804608F0010008B10320D4E70A98B0
:101F700020B108F0040008B10A20CDE70027394657
:101F80002046FFF775FF0546012D01D09DB93BE0C6
:101F9000002623E004F5F77101EB06100179C9B1C1
:101FA000C17A0A06817A42EA0142417A42EA012173
:101FB000027A11430FE027E0222A3A3C3E3F7C7F21
:101FC000000000002B2C3B3D5B5D000046415400AF
:101FD0001800002000214DF82610761C042ED9D3BD
:101FE000002606B1761E00BF5DF8267027B139467F
:101FF0002046FFF73DFF00E0022005461DB1701CA2
:1020000006460428F0D300BF032D01D1012083E749
:102010000DB10D2080E73B20015D94F83C0041EAC2
:102020000020B0F5007F01D00D2075E74620015D4E
:1020300094F8470041EA0029B9F1000F0ED194F855
:102040005700010694F8560041EA004194F8550003
:1020500041EA002094F8541040EA0109C4F81890AD
:102060004020005DE070E078012804D0E07802288C
:1020700001D00D2050E7E07809FB00F93D20005D1C
:10208000A070A07818B1A078411E084008B10D20BA
:1020900042E74120015D94F8420041EA002020819E
:1020A000207A00F00F0008B10D2035E74320015DD4
:1020B00094F8440041EA002BBBF1000F0ED194F8D4
:1020C0005300010694F8520041EA004194F851008F
:1020D00041EA002094F8501040EA010B3E20015DD7
:1020E00094F83F0041EA00200490049808B90D20BC
:1020F00012E704984844218900EB111006900698D5
:10210000834501D20D2007E70698ABEB0000A178CC
:10211000B0FBF1FABAF1000F01D10D20FCE6012568
:1021200040F6F670824500D302254FF6F6708245E0
:1021300000D303250AF102006061E7610498384486
:10214000206206983844A062032D16D1208908B178
:102150000D20E1E694F85F00010694F85E0041EA84
:10216000004194F85D0041EA002094F85C100843B7
:10217000606260698000059014E0208908B90D2034
:10218000CAE6206A48446062022D02D160694000BC
:1021900007E0207D00F00100616901EB410100EBE7
:1021A00051000590A169059800F2FF10B1EB502F86
:1021B00001D20D20B0E64FF0FF302061E0608020BA
:1021C0006071032D5AD194F8601094F8610041EACF
:1021D0000020012852D1791C2046FEF7EDFDE8BB16
:1021E0000020607194F82E1294F82F0241EA00202A
:1021F0004AF65521884241D13320005D0106322044
:10220000005D41EA00413120005D41EA002094F880
:1022100030100843FC49884230D194F81702010677
:1022200094F8160241EA004194F8150241EA0020B0
:1022300094F814120843F54988421FD194F81B0200
:10224000010694F81A0241EA004194F8190241EAA1
:10225000002094F818120843206100E00EE094F882
:102260001F02010694F81E0241EA004194F81D0283
:1022700041EA002094F81C120843E0602570E4480D
:102280000088401C80B2E2490880E080002043E6DC
:1022900070B505462C464CB1206838B120680078EE
:1022A00020B12068C088A188884201D0092070BD73
:1022B0002168487803F050F900F0010008B10320CC
:1022C000F5E70020F3E7F7B582B0164603980190D2
:1022D00001A8FFF7A8FD0546002D02DA0B2005B086
:1022E000F0BDCC4850F825400CB100202070029879
:1022F00010B1002002990870C649029841F82500E3
:10230000029808B1012E01D00020E8E7002203A9BD
:1023100002A8FFF7F3FD07463846E0E72DE9F74747
:102320008DB0054616461DB9092010B0BDE8F087EE
:102330000020286006F01F0626F001020EA904A85E
:10234000FFF7DCFD0746002F73D14FF4007003F058
:10235000C1F98146B9F1000F01D11120E5E7CDF8AF
:102360002C9001A80A9004A80E99FFF714FD0746C7
:10237000099C0FB904B9062706F01C00002851D0AB
:102380004FB1042F03D104A8FFF782FA074646F0A5
:102390000806099C09E0E07A00F0110008B107275F
:1023A00003E006F0040000B10827002F39D106F041
:1023B0000800002835D003F08BF9804684F80E80A1
:1023C0004FEA1821E1734FEA184121744FEA18616E
:1023D00061740020E072207700216177A177E177B6
:1023E00021460498FFF740F8824600212046FFF777
:1023F0004BF8012004990871BAF1000F11D004982C
:10240000D0F82C8051460498FEF76FFE074647B976
:10241000AAF101000499C86041460498FEF7CCFC7B
:1024200007460FE077B9E07A00F0100010B10427FA
:1024300008E031E006F0020020B1E07A00F001008F
:1024400000B1072747B906F0080008B146F020069A
:102450000498C06AE8612C62484603F041F9DFB98C
:10246000AE710020E87121460498FEF7FDFF286157
:10247000E07F0106A07F41EA0041607F41EA002041
:10248000217F0843E8600020A860A8616862049882
:1024900028602868C088A880384646E72DE9FF4FA5
:1024A00083B0044615469A46DDF810B00020CAF8FD
:1024B00000002046FFF7ECFE0290029818B1029847
:1024C00007B0BDE8F08FE07908B1E079F8E7A079CE
:1024D00000F0010008B90720F2E7D4E90210401A21
:1024E00000900098854200D9009DB3E02089C0F398
:1024F0000800002876D120688078401EA16800EA94
:10250000512000F0FF09B9F1000F1FD1A06810B9E8
:10251000206901900CE0606A28B12046A168FEF7AE
:1025200085FE019004E061692068FEF7CFFC019010
:102530000198022802D20220E071C1E70198401CF4
:1025400010B90120E071BBE7019860616169206802
:10255000FEF7AFFC064616B90220E071B0E74E4424
:102560004FEA5528B8F1000F29D009EB080021687F
:102570008978884203D920688078A0EB090821680F
:10258000487843463246594602F0E9FF10B101202F
:10259000E07195E7A07900F0400068B1A069801B68
:1025A000404509D2A169891B0BEB41204FF4007211
:1025B00004F12801FEF7A6FB4FEA482740E0A06996
:1025C000B04229D0A07900F0400080B1216848785D
:1025D000012304F12801A26902F0FCFF18B10120D7
:1025E000E0716DE719E0A07920F04000A07121684A
:1025F00048780123324604F1280102F0B0FF58B1B7
:102600000120E0715CE70000525261417272416149
:102610002000002018000020A6612089C0F30800D7
:10262000C0F50077AF4200D92F462089C0F30802D9
:1026300004F1280011183A465846FEF763FB00BF24
:10264000BB44A0683844A060DAF800003844CAF8F7
:102650000000ED1B002D7FF449AF002030E72DE98D
:10266000FF4F83B0044615469B4604980190002016
:10267000CBF800002046FFF70BFE0290029818B13D
:10268000029807B0BDE8F08FE07908B1E079F8E78B
:10269000A07900F0020008B90720F2E7A0682844FA
:1026A000A168884200D20025C2E02089C0F308005A
:1026B00000286FD120688078401EA16800EA512070
:1026C00000F0FF0ABAF1000F2CD1A06858B9D4F875
:1026D0001080B8F1000F13D100212068FEF73BFDF8
:1026E000804620610CE0606A28B12046A168FEF7B0
:1026F0009DFD804604E061692068FEF72CFD804660
:10270000B8F1000F00D196E0B8F1010F02D102201C
:10271000E071B6E708F1010010B90120E071B0E7FF
:10272000C4F81480A07900F0400078B1216848789E
:10273000012304F12801A26902F04CFF10B101202D
:10274000E0719EE7A07920F04000A07161692068E7
:10275000FEF7AFFB064616B90220E07191E756443A
:102760004FEA5529B9F1000F2BD00AEB0900216877
:102770008978884203D920688078A0EB0A0921680B
:1027800048784B463246019902F024FF18B10120E7
:10279000E07176E729E0A069801B48450ED2A06968
:1027A000801B019A02EB40214FF4007204F12800D3
:1027B000FEF7A8FAA07920F04000A0714FEA49275F
:1027C0002AE0A069B0420FD0D4E9020188420BD2BE
:1027D000216848780123324604F1280102F0BFFE47
:1027E00010B10120E0714CE7A6612089C0F3080018
:1027F000C0F50077AF4200D92F462189C1F3080206
:1028000004F1280150183A460199FEF77BFAA079A5
:1028100040F04000A07100BF019838440190A068CA
:102820003844A060DBF800003844CBF80000ED1B12
:10283000002D7FF43AAF00BFD4E90201884201D9EC
:10284000A068E060A07940F02000A071002018E7A7
:102850002DE9F04104462046FFF71AFD0746002FF8
:102860004CD1A07900F02000002847D0A07900F0DA
:10287000400078B121684878012304F12801A26959
:1028800002F0A8FE10B10120BDE8F081A07920F08F
:102890004000A071E1692068FEF78EFA0746002F1C
:1028A0002CD1256AE87A40F02000E872207B287756
:1028B000A089010A6977E068010CA977E068010E38
:1028C000E97728462169FEF7DFFD02F001FF0646A1
:1028D000AE75310AE975310C2976310E6976002022
:1028E000A8740021E974A07920F02000A0710120D3
:1028F000216808712068FEF778FA07463846C3E772
:1029000070B505462846FFF7A3FF044634B92846AC
:10291000FFF7BEFC04460CB900202860204670BDBD
:102920002DE9FE4F04460D462046FFF7B1FC02900C
:10293000029810B10298BDE8FE8FE07908B1E07905
:10294000F9E7606A002871D0681C00283BD1D4F8F0
:10295000248058F804AB4FF0020926693EB300BF4B
:1029600000964FF0000B09F1020900BF01960BF130
:10297000010B31462068FEF7A9FA0646012E02D85F
:102980000220E071D7E7701C10B90120E071D2E796
:102990000198401C8642E9D0D14504D848F804BBD0
:1029A000009848F8040B20684069B042D8D8606AA3
:1029B000C0F80090D14503D80020C8F8000047E0D7
:1029C0001120029044E0E068A84200D2E568A560CA
:1029D000002D3DD0691E2046FEF728FC606161692C
:1029E0002068FEF766FA074617B90220E071A2E7F1
:1029F00020688078401E691E00EA51200744208923
:102A0000C0F3080020B3A069B84221D0A07900F03B
:102A1000400080B121684878012304F12801A269AF
:102A200002F0D8FD18B10120E07184E711E0A0792F
:102A300020F04000A0712168487801233A4604F153
:102A4000280102F08CFD10B10120E07173E7A7614D
:102A5000ABE0E068A84204D2A07900F0020000B91F
:102A6000E568D4F808904FF00008C4F80880002DFD
:102A700067D0206880784702B9F1000F11D0681E36
:102A8000B0FBF7F1A9F10100B0FBF7F0814208D3E8
:102A9000A9F10100791E8843A060A0682D1A66691B
:102AA00012E026697EB900212068FEF754FB064635
:102AB000012E02D10220E0713DE7701C10B9012007
:102AC000E07138E726616661C6B323E0A07900F0C3
:102AD000020038B131462068FEF73DFB064636B9A4
:102AE0003D4619E031462068FEF7F0F90646701CB5
:102AF00010B90120E0711EE7012E03D9206840695A
:102B0000B04202D80220E07115E76661A06838443F
:102B1000A060ED1BBD42D9D800BFA0682844A060CA
:102B2000C5F3080050B131462068FEF7C2F980466F
:102B3000B8F1000F03D10220E071FCE601E008EBE0
:102B400055282089C0F3080020B3A069404521D052
:102B5000A07900F0400078B121684878012304F1A1
:102B60002801A26902F036FD10B10120E071E2E611
:102B7000A07920F04000A0712168487801234246E6
:102B800004F1280102F0EBFC10B10120E071D2E663
:102B9000C4F81880D4E90201884205D9A068E06031
:102BA000A07940F02000A07100BF0298C3E673B581
:102BB00084B0044614B9092006B070BD002205A9EE
:102BC00003A8FFF79BF90546002D2FD1039820603D
:102BD0004FF4007002F07EFD06460EB91120EBE7BF
:102BE000E661C4F818D020460599FFF7D4F80546E9
:102BF000304602F075FDB5B9606958B16069C07AB8
:102C000000F0100028B161690398FEF72DFCA06068
:102C100000E005253DB90398C088A080002120462A
:102C2000FEF71DFB0546042D00D105250DB1002042
:102C300020602846C0E770B504462046FFF728FB11
:102C400005460DB900202060284670BDFEB504463B
:102C50000F462046FFF71CFB0546002D2DD12FB94E
:102C600000212046FEF7FBFA054626E04FF40070EF
:102C700002F030FD06460EB91120FEBDE661C4F833
:102C800018D000212046FEF7A1FD0546042D02D1F3
:102C90000020206100256DB939462046FEF7C7FEA9
:102CA00000212046FEF72AFB0546042D02D1002014
:102CB00020610025304602F013FD2846DDE773B59C
:102CC0008CB00E4600220CA903A8FFF717F90546A1
:102CD000EDB94FF4007002F0FDFC044614B9112068
:102CE0000EB070BD0A94CDF824D003A80C99FFF75C
:102CF00052F8054645B9089828B12EB1314603A8C7
:102D0000FEF795FE00E00625204602F0E9FC284685
:102D1000E6E72DE9F74F82B08A46002202A904981F
:102D2000FFF7ECF8019004980468019800286DD131
:102D3000D4E90410801E814203D82069CAF800003B
:102D400064E094F800B00026BBF1010F1CD102270B
:102D500000BF39462046FEF7B9F8804608F1010069
:102D600010B9012001900EE0B8F1010F02D102204C
:102D7000019008E0B8F1000F00D1761C781C0746DE
:102D800061698842E5D33AE06769206A00904FF0B4
:102D90000009002500BFB9F1000F0ED10098421CB8
:102DA000014620460092FEF707F80190019800B115
:102DB00024E004F130054FF40079BBF1020F09D192
:102DC0002878697840EA012000B9761CAD1CA9F189
:102DD000020910E0E8780006A97840EA0140697825
:102DE00040EA01202978084320F0704000B9761CA1
:102DF0002D1DA9F10409781E0700CCD100BF266162
:102E0000607940F001006071CAF80060019805B077
:102E1000BDE8F08F70B504462046FFF739FA054645
:102E200045B9E07908B1E57904E0A07900F0020045
:102E300000B90725002D47D1D4E90210884241D9B5
:102E4000A068E060A07940F02000A071A06838B9C7
:102E500021692068FEF749F90546002020611DE040
:102E600061692068FEF732F806460025701C00B93B
:102E70000125012E00D1022585B920684069B042A4
:102E80000CD96FF0704261692068FEF793F805462F
:102E900025B931462068FEF728F9054695B9A0798D
:102EA00000F0400070B121684878012304F1280146
:102EB000A26902F08FFB08B1012503E0A07920F0A0
:102EC0004000A07105B1E571284670BDF1B596B01E
:102ED000012216A90DA8FFF711F80446002C54D1C1
:102EE0004FF4007002F0F6FB074617B9112017B037
:102EF000F0BD149701A813900DA81699FEF74BFF8B
:102F0000044600BF002C3DD1129E0EB9062404E0F9
:102F1000F07A00F0010000B1072431460D98FEF769
:102F2000A3FA0546ECB9F07A00F01000C8B1022D02
:102F300001D2022415E024220DA904A8FDF7E2FE27
:102F40000695022104A8FEF78AF904464CB900212F
:102F500004A8FEF73BFC044604B90724042C00D166
:102F600000247CB90DA8FEF72DFD044654B925B107
:102F700029460D98FEF7B9F804461CB90D98FDF7DF
:102F800034FF0446384602F0ABFB2046AFE72DE99C
:102F9000F14F8CB002F09CFB064601220CA903A85D
:102FA000FEF7ACFF0546002D7BD14FF4007002F018
:102FB00091FB8046B8F1000F03D111200DB0BDE8A0
:102FC000F08FCDF82880CDF824D003A80C99FEF717
:102FD000E2FE054605B9082500BF042D7AD100217F
:102FE0000398FEF7B8F80746002507B90725012F13
:102FF00000D10225781C00B901251DB90398FDF701
:10300000B5FE0546002D5BD139460398FDF751FF0B
:103010008246039800F130044FF4007200212046EC
:10302000FDF77DFE0B2220212046FDF778FE2E20A5
:1030300020701020E072A675310AE175310C2176FE
:10304000310E617639462046FEF71EFA20222146CF
:1030500004F12000FDF756FE2E2084F82100DDF853
:1030600014B003980078032804D10398406A5845A7
:1030700000D1AB46594604F12000FEF705FA03984B
:1030800090F8029018E00398C0F82CA00AF1010A09
:103090000120039908710398FDF768FE05460DB1FC
:1030A0000DE030E04FF4007200212046FDF737FEBE
:1030B000A9F1010000F0FF09B9F1000FE3D100BF51
:1030C0001DB903A8FEF7E4FB054625B13946039870
:1030D000FEF70BF814E0089C1020E072A675310A88
:1030E000E175310C2176310E617639462046FEF7C6
:1030F000CBF90120039908710398FDF776FE054688
:10310000404602F0EDFA284658E72DE9F7418DB028
:103110008846144601220DA904A8FEF7EFFE0746D3
:103120004FBB4FF4007002F0D5FA06461EB91120CD
:1031300010B0BDE8F0810B9601A80A9004A80D9983
:10314000FEF729FE0746304602F0CAFA00BF97B9DB
:10315000099D0DB906270EE004F0270408EA0400D3
:10316000E97AA1430843E8720120049908710498A0
:10317000FDF73BFE07463846DAE7F3B58DB00D465E
:1031800001220DA904A8FEF7B9FE074657BB4FF46C
:10319000007002F09FFA064616B911200FB0F0BD7C
:1031A0000B9601A80A9004A80D99FEF7F4FD0746B6
:1031B000304602F095FA00BFA7B9099C0CB9062762
:1031C00010E0A879A075E8880112E17528792076C9
:1031D000A888011261760120049908710498FDF70E
:1031E00004FE07463846D9E72DE9F3419CB0012299
:1031F0001CA913A8FEF782FE0446002C78D1139870
:103200000A904FF4007002F065FA07461FB91120CA
:103210001EB0BDE8F0811A9701A8199013A81C9957
:10322000FEF7B9FD044600BF002C75D1189808B907
:10323000042471E0189800F10B01152204A8FDF791
:1032400061FD242213A90AA8FDF75CFD1DA8FEF765
:10325000EAFD002805DB0AA81D99FEF79CFD04463F
:1032600000E00B2404B90824042C55D10AA8FEF769
:103270000FFB0446002C4FD10F9D13220DF11201BC
:1032800005F10D00FDF73EFD9DF8100040F0200017
:10329000E8720120139908710C991598884231D071
:1032A000E87A00F0100068B329461398FEF7DCF8BE
:1032B000804641461398FDF7FCFD06460EB90224F0
:1032C00020E031461398FDF777FD0446139800F18E
:1032D0005005BCB968782E2814D1139800780328BB
:1032E00007D113990C98496A884202D1002001E065
:1032F00015E00C98064631462846FEF7C5F8012031
:103300001399087144B913A8FEF75CFB04461CB975
:103310001398FDF76AFD0446384602F0E1F92046AD
:1033200076E72DE9F74189B00D469046002209A9BC
:103330006846FEF7E3FD044624BB1DB3002002905F
:1033400000216846FDF78BFF0446DCB90121684681
:10335000FEF73CFA044684B90B2228460599FDF78E
:10336000D1FC0B2700BF0020E85507B904E0781E08
:103370000746285C2028F6D000BF042C02D100208C
:103380002870002444BBB8F1000F25D0009A1046E5
:10339000D169FDF711FD0446F4B9009800780328BF
:1033A00001D1432000E02720064600983030304409
:1033B000C0780106009830303044807841EA0041FE
:1033C000009830303044407841EA00200099303194
:1033D000895D0843C8F8000020460CB0BDE8F081C4
:1033E0002DE9F14F8CB001220CA903A8FEF786FD50
:1033F0008146B9F1000F03D048460DB0BDE8F08F0B
:1034000000208DF80000002700E07F1C0C98C05DB4
:103410000028FAD100E07F1E27B1781E0C99085CC5
:103420002028F8D0002F5ED00026B04600BF3046DE
:10343000761C0C990C5C812C20DBE0B2FE281DDC94
:10344000B8F10A0F18D2BE4216D20C98805D4028FF
:1034500003DB0C98805D7E2807DD0C98805D80285A
:103460000ADB0C98805DFE2806DC3046761C0C9941
:10347000085C40EA042000E0002084B201212046DC
:1034800000F08CFD834600F0C3FD8246002100F071
:1034900085FD04465CB12146FEA0FDF75DFC30B918
:1034A000FF2C01DD0A2000E00B20404501D806205A
:1034B000A3E7FF2C05DD2212404608F101080DF8B4
:1034C0000020E2B2404608F101080DF80020BE429B
:1034D000ADD305E02022404608F101080DF8002098
:1034E000B8F10B0FF6D300200590002103A8FDF7DB
:1034F000B6FE8146B9F1000F5BD1012103A8FEF7AA
:1035000065F98146B9F1000F21D19DF8000098B10D
:103510000B2269460898FDF7F5FB02F0D9F805463D
:1035200008998D75290A0898C175290C08980176A3
:10353000290E0898417602E0E520089908700120DC
:10354000039908710398FDF750FC814631E0B9F109
:10355000040F2ED14FF000099DF8000048B301215F
:1035600003A8FDF753FF8146B9F1000F21D12022B6
:1035700000210898FDF7D3FB0B2269460898FDF758
:10358000C1FB08200899C87202F0A2F80546089904
:103590008D75290A0898C175290C08980176290E9D
:1035A000089841760120039908710398FDF71DFCE6
:1035B0008146484621E72DE9F74F90B0914610A883
:1035C000FEF731FC0F900F98002803DA0B2013B0A0
:1035D000BDE8F08F1198012801DD1320F7E7A9F16C
:1035E000010000EA090008B11320F0E7AD490F9887
:1035F00051F820B0BBF1000F01D10C20E7E700200B
:103600008BF800000F98C0B20C9000200B900C9823
:1036100001F076FF0190019800F0010008B103204D
:10362000D5E7019800F0040008B10A20CFE700BFF9
:1036300004AA01210C9801F0FEFF10B9049880281B
:1036400001D20120C3E7119808B1002000E03F201B
:1036500080460498A0EB08000490B9F1000F13D144
:103660004FF4FA610498B0FBF1F00A904FF0000AB1
:1036700001E00AF1010A8C4830F81A100A988142D8
:10368000F7D88A4830F81A904FEA5929B9F1000F53
:1036900001D14FF00109B9F1800F01D94FF0800934
:1036A0000498B0FBF9F7012540F6F670874200D385
:1036B00002254FF6F670874200D30325032D0AD169
:1036C000082000EB870000F2FF10460A202003903C
:1036D0000020029011E0012D05D107EB4700401CAE
:1036E0004008C01C01E07800001D064606F2FF10ED
:1036F000460A01200390202002900398404407903E
:103700000798304406900299069808440590059859
:103710004844A0EB08000499884201D90E2056E7DE
:1037200009AA03210C9801F086FF28B9099818B15D
:103730000998B0F5004F01D9012009900999059821
:103740000844401E491E8843099009990598081AA3
:103750000990032D08D10999039808440390099909
:1037600007980844079001E009980644DDE9030141
:10377000081A811B0298081AB0FBF9F7022D03D131
:1037800040F6F670874205D3032D05D14FF6F6704B
:10379000874201D20E201AE7032D02D10C200D9092
:1037A00010E0012D06D10498B0F5803F02D201202F
:1037B0000D9007E00498B0F5803F01D2042000E0AE
:1037C00006200D9000BF119810B1F0200E9044E03B
:1037D0004FF4007200210BF13000FDF7A0FA0BF559
:1037E000F77401206070A0700020E0700D982071C7
:1037F000FE206071049840443F21B0FBF1F0FF21AE
:10380000B0FBF1F009903F21099841EA9000A071C6
:103810000998E0713F20207200216172A172E1726B
:10382000049820730498010A61730498010CA17331
:103830000498010EE17355218BF82E12AA218BF802
:103840002F12012300220BF130010C9801F0C2FE6F
:1038500008B10120BBE6F8200E900BF130044FF4C4
:10386000007200212046FDF75AFA0B2210A12046D3
:10387000FDF748FA4FF4007A84F80BA04FEA1A21BA
:10388000217384F80D900398A0730398010AE173E3
:10389000012013E0222A2B2C2E3A3B3C3D3E3F5B7D
:1038A0005D7C7F00180000206C8C0008828C000872
:1038B000EBFE904D53444F53352E30002074032DB2
:1038C00001D1002001E04FF40070824684F811A07D
:1038D0004FEA1A21A1740498B0F5803F05D20498EC
:1038E000E0740498010A217510E0049884F820001F
:1038F0000498C0F30721212001550498C0F3074123
:10390000222001550498010E232001550E98607560
:103910003F20207600216176FF20A076E17684F8B2
:103920001C804FEA182161774FEA1841A1774FEACE
:103930001861E17701F0CCFE0990032D3ED1099882
:1039400084F843000998C0F30721442001550998E1
:10395000C0F30741452001550998010E4620015545
:1039600084F82460C6F3072125200155C6F30741DA
:1039700026200155310E27200155022084F82C0005
:1039800000212D2001552E2001552F200155012009
:1039900084F8300031200155062084F832003320AD
:1039A0000155802084F84000292084F84200132229
:1039B000FEA104F14700FDF7A5F91FE0099884F87E
:1039C00027000998C0F30721282001550998C0F362
:1039D0000741292001550998010E2A200155A67595
:1039E000310AE175802084F82400292084F826001B
:1039F0001322F3A104F12B00FDF784F9552084F87C
:103A0000FE01AA2140F2FF10015501234246214642
:103A10000C9801F0DFFD08B10120D8E5032D06D197
:103A2000012308F1060221460C9801F0D3FD079806
:103A300008904FF0000A61E04FF400720021204628
:103A4000FDF76DF90E980990032D14D0012D01D1C9
:103A5000E04801E06FF0FF000999084309900998D8
:103A600020700998000A60700998000CA0700998ED
:103A7000000EE07019E0099860F0FF0009900998C5
:103A800020700998000A60700998000CA0700998CD
:103A9000000EE070FF202071FF216171A171E171C2
:103AA00020726172A1720F21E1720898411C0246D6
:103AB0000123089121460C9801F08CFD08B10120EA
:103AC00085E54FF4007200212046FDF728F901201A
:103AD00009900EE00898411C0246012308912146F6
:103AE0000C9801F077FD08B1012070E50998401CA1
:103AF00009900998B042EDD30AF1010ABAF1000F1A
:103B00009AD0032D01D1484600E00298824600BFBA
:103B10000898411C02460123089121460C9801F0A7
:103B200059FD08B1012052E5AAF101005FEA000A3F
:103B3000EED1032D46D15220207060706120A0701C
:103B40004120E070722084F8E401722140F2E51017
:103B500001554121401C01556121401C0155781E31
:103B600084F8E801C0F3072140F2E9100155781EFE
:103B7000C0F307414FF4F5700155781E010E40F275
:103B8000EB100155022084F8EC01002140F2ED1009
:103B90000155401C0155401C0155552084F8FE017B
:103BA000AA2140F2FF100155012308F1010221462C
:103BB0000C9801F00FFD012308F1070221460C9833
:103BC00001F008FD002211460C9801F034FD08B107
:103BD0000120FCE40020FAE42DE9FC470746884672
:103BE000914600243E4613E06B46012201A9484657
:103BF000FEF754FC0098012800D00DE09DF8045019
:103C000000BF06F8015B641C0A2D00D104E000BF70
:103C1000A8F10100A042E7DC00BF0020307014B121
:103C20003846BDE8FC870020FBE7F8B504460E46A1
:103C300000BF6568002D00DAF8BD28466D1C04F150
:103C40000C010E543D2D0CDB6B462A462068FEF716
:103C500006FD0098A84201D1002001E04FF0FF309E
:103C600005466560A068401CA06000BFE4E730B571
:103C700095B004460D46029500200390049021461D
:103C800002A8FFF7D2FF039800280DDB01AB05A9BE
:103C9000DDE90202FEF7E3FC30B90199039888429E
:103CA00002D1049815B030BD4FF0FF30FAE730B5BF
:103CB00095B004460D46029500200390049004E060
:103CC00014F8011B02A8FFF7B0FF20780028F7D1F5
:103CD000039800280DDB01AB05A9DDE90202FEF720
:103CE000BEFC30B901990398884202D1049815B0FE
:103CF00030BD4FF0FF30FAE70FB42DE9F04F9BB025
:103D00002498019000200290039026A81A9000BFEA
:103D1000259810F8014B259004B924E1252C04D0F6
:103D2000214601A8FFF781FFF2E700200646814601
:103D3000259810F8014B2590302C05D101262598A7
:103D400010F8014B259006E02D2C04D10226259871
:103D500010F8014B259009E009EB890004EB4000C5
:103D6000A0F13009259810F8014B2590302C01DB8B
:103D7000392CF1DD6C2C01D04C2C05D146F0040619
:103D8000259810F8014B259004B9ECE02546612DEB
:103D900004DB7A2D02DCA5F12000C5B24F2D60D0E6
:103DA0001DDC422D5AD0432D4FD015E04E4F204EF2
:103DB000414D452020202046415433322020200010
:103DC0004E4F204E414D452020202046415420207A
:103DD0002020200000FFFF00442D4CD144E0532D53
:103DE00004D0552D41D0582D45D141E01A9850F8B6
:103DF00004BB1A904FF0000801E008F101081BF81D
:103E000008000028F9D106F0020048B903E020219B
:103E100001A8FFF70AFF404608F101084845F6D31C
:103E200004E01BF8011B01A8FFF7FFFE9BF8000050
:103E30000028F6D103E0202101A8FFF7F6FE404656
:103E400008F101084845F6D362E71A9810F8042BE8
:103E5000D1B21A9001A8FFF7E8FE59E702201990A5
:103E60000EE0082019900BE000BF0A20199007E02F
:103E70001020199004E0214601A8FFF7D6FE47E77D
:103E800000BF06F0040028B11A9800681A99091DAD
:103E90001A910CE0442D05D11A9800681A99091D51
:103EA0001A9104E01A9800681A99091D1A9182461D
:103EB000442D06D10AF0004018B1CAF1000A46F0BC
:103EC0000806002700BF1998BAFBF0F100FB11A00B
:103ED000C5B21998BAFBF0FA092D06DD782C01D18C
:103EE000272000E007202844C5B205F13000C2B207
:103EF00038467F1C14A90A54BAF1000F01D0102FC4
:103F0000E1D306F0080020B12D2238467F1C14A909
:103F10000A54B84606F0010008B1302000E0202025
:103F2000054603E0294601A8FFF77FFE06F00200E0
:103F300020B9404608F101084845F3D300BF781E78
:103F4000074614AA115C01A8FFF76FFE002FF6D1F7
:103F500003E0294601A8FFF768FE404608F1010882
:103F60004845F6D3D4E600BF00201A9002980028F6
:103F700010DB18AB04A9DDE90102FEF770FB48B9BC
:103F800018990298884205D103981BB0BDE8F00F3C
:103F90005DF814FB4FF0FF30F7E700002DE9F0412A
:103FA00002460F46802A01DA10462FE01FB1244B4B
:103FB00045F2205602E0234B45F2205600251024FE
:103FC00016E0A6EB050C0CEBDC7805EB68014FEA7C
:103FD000410C33F81CC0944500D10BE04FEA410C72
:103FE00033F81CC0944501DA0D4600E00E46641E0D
:103FF000002CE6D100BF34B14FF0010C0CEB410CAA
:1040000033F81CC001E04FF0000C6046BDE8F081C1
:104010000246002100E0491C0B4830F8110020B195
:10402000094830F811009042F5D1074830F81100E6
:1040300018B1064830F8110070471046FCE7000040
:104040001CE10108988C0008A0350308803703089C
:1040500010B500240020CB4908609020FCF750FBED
:104060000020FCF74DFB0020FCF74AFB0020FCF78A
:1040700047FBFF20FCF744FB44EA0024FF20FCF749
:104080003FFB04430120C049C1F88801204610BD10
:1040900008B50121042002F05BFD1C20ADF80000F2
:1040A00010208DF8030003208DF802006946B74800
:1040B00002F092FA1C21B54802F03BFBFCF747FBEB
:1040C0000820FCF77AFBFFF7C3FFB149088008BD61
:1040D00010B500240020AB4908600520FCF710FB58
:1040E000FF20FCF70DFB04460120A749C1F8880119
:1040F000204610BD10B504460020A24908600120EA
:10410000FCF7FEFA2046FCF7FBFA01209E49C1F8B5
:10411000880110BD10B500209A4908600620FCF700
:10412000EFFA01209849C1F8880110BD10B50020B0
:10413000944908600420FCF7E3FA01209249C1F891
:10414000880110BD2DE9F04106460C4617460020B7
:104150008C4908600320FCF7D3FAC4F30740FCF74E
:10416000CFFAC4F30720FCF7CBFAE0B2FCF7C8FAA9
:10417000002505E0FF20FCF7C3FA7055681C85B2E6
:10418000BD42F7DB01207F490860BDE8F08110B532
:1041900000BFFFF79DFF00F001000028F9D110BD1E
:1041A0002DE9F04106460C461746FFF7B3FF002005
:1041B000744908600220FCF7A3FAC4F30740FCF737
:1041C0009FFAC4F30720FCF79BFAE0B2FCF798FAD9
:1041D000002504E0705DFCF793FA681C85B2BD42CF
:1041E000F8DB012067490860FFF7D1FFBDE8F081E7
:1041F0002DE9F04107460E461446F0B2C0F5807531
:10420000AC4200DC254612E02A4631463846FFF72C
:10421000C7FFAC4200D10BE02F442E44601B84B298
:10422000B4F5807F02DD4FF4807500E02546EBE7B2
:1042300000BFBDE8F08110B504462403FFF76AFF14
:10424000FFF7A5FF00204F4908602020FCF758FA2F
:10425000C4F30740FCF754FAC4F30720FCF750FA04
:10426000E0B2FCF74DFA01204749C1F88801FFF799
:104270008EFF10BD2DE9F04781460F4616464FEAE6
:104280001738C7F30B0ACAF58054A64200DC34463F
:1042900044E04FEA08314FF480523E48FFF752FFA6
:1042A000002508E00AEB05003A49085CFF2800D029
:1042B00003E0681C85B2A542F4DB00BFA54216DA14
:1042C0004046FFF7B8FF002507E019F8050005EBA9
:1042D0000A01304A5054681C85B2A542F5DB4FEA0A
:1042E00008314FF480522B48FFF782FF04E022464A
:1042F00039464846FFF77CFFA64200D10FE008F19F
:1043000001084FF0000AA1442744301B86B2B6F5DD
:10431000805F02DD4FF4805400E03446B9E700BF0F
:10432000BDE8F08710B5FFF7F5FEFFF730FF00207E
:1043300014490860C720FCF7E3F901201249C1F8CD
:104340008801FFF724FF10BD10B500200D4908605B
:10435000B920FCF7D5F901200B49C1F888010320E9
:1043600001F0C9FF10BD10B5002006490860AB2060
:10437000FCF7C6F901200449C1F88801032001F0C7
:10438000BAFF10BD8801214200002142000801400F
:1043900022000020A603002010B58CB004461E2386
:1043A0000BAA03A9204600F0AFFE0090009810B1C0
:1043B00001200CB010BD9DF82C00044400200B908F
:1043C0000EE040489DF82C2050F8221003A800F081
:1043D00003FE00B908E09DF82C00401CC0B20B9011
:1043E0009DF82C000728ECD300BF9DF82C0007286F
:1043F00063D2DFE800F004053C5E6564630000BF43
:1044000031A004F04DF931A004F04AF93FA004F0C6
:1044100047F94EA004F044F95CA004F041F96BA008
:1044200004F03EF979A004F03BF986A004F038F9D5
:104430008BA004F035F990A004F032F994A004F0B8
:104440002FF999A004F02CF99EA004F029F9A4A05A
:1044500004F026F9B0A004F023F9BDA004F020F97F
:10446000C8A004F01DF9D4A004F01AF99AE216A02D
:1044700004F016F9E0A004F013F900200B900EE010
:10448000ED4800689DF82C2000EBC2004168EBA0CD
:1044900004F006F99DF82C00401CC0B20B90E648D1
:1044A000007D9DF82C108842EADC07A004F0F8F8A3
:1044B00078E205A004F0F4F8C4E171E245E219E203
:1044C000ECE10000240000200D0A00002D2D2D2D10
:1044D0002D2D2D2D2D2D2D2D2D2D2D2D2D2D2D2D0C
:1044E0002D2D2D2D55534D4152542056332E312D07
:1044F0002D2D2D2D2D2D2D2D2D2D2D2D2D2D2D2DEC
:104500002D2D2D2D2D2D2D200D0A000020202020B9
:1045100055534D415254CAC7D3C9414C49454E54D5
:10452000454BBFAAB7A2B5C4D2BBB8F6C1E9C7C94B
:10453000B5C4B4AEBFDAB5F7CAD4BBA5BDBBD7E925
:10454000BCFE2CCDA8B9FD200D0A0000CBFC2CC46C
:10455000E3BFC9D2D4CDA8B9FDB4AEBFDAD6FACA8A
:10456000D6B5F7D3C3B3CCD0F2C0EFC3E6B5C4C859
:10457000CEBACEBAAFCAFD2CB2A2D6B4D0D02ED20B
:10458000F2B4CB2CC4E3BFC90D0A0000D2D4CBE6F1
:10459000D2E2B8FCB8C4BAAFCAFDB5C4CAE4C8EB2D
:1045A000B2CECAFD28D6A7B3D6CAFDD7D628313099
:1045B0002F3136BDF8D6C629A1A2D7D6B7FBB4AEE7
:1045C000A1A2BAAFCAFDC8EB0D0A0000BFDAB5D888
:1045D000D6B7B5C8D7F7CEAAB2CECAFD292CB5A595
:1045E000B8F6BAAFCAFDD7EEB6E0D6A7B3D631302B
:1045F000B8F6CAE4C8EBB2CECAFD2CB2A2D6A7B3B5
:10460000D6BAAFCAFDB7B5200D0A0000BBD8D6B5E3
:10461000CFD4CABE2ED0C2D4F6B2CECAFDCFD4CA31
:10462000BEBDF8D6C6C9E8D6C3B9A6C4DC2CD0C274
:10463000D4F6BDF8D6C6D7AABBBBB9A6C4DC2E0D2E
:104640000A000000BCBCCAF5D6A7B3D63A77777784
:104650002E6F70656E6564762E636F6D0D0A0000B7
:1046600055534D415254D3D037B8F6CFB5CDB3C31F
:10467000FCC1EE3A0D0A00003F3A20202020202005
:10468000BBF1C8A1B0EFD6FAD0C5CFA20D0A000089
:1046900068656C703A202020BBF1C8A1B0EFD6FA53
:1046A000D0C5CFA20D0A00006C6973743A20202097
:1046B000BFC9D3C3B5C4BAAFCAFDC1D0B1ED0D0AED
:1046C0000A00000069643A2020202020BFC9D3C31B
:1046D000BAAFCAFDB5C44944C1D0B1ED0D0A0A0054
:1046E0006865783A20202020B2CECAFD3136BDF868
:1046F000D6C6CFD4CABE2CBAF3B8FABFD5B8F12B00
:10470000CAFDD7D6BCB4D6B4D0D0BDF8D6C6D7AAC9
:10471000BBBB0D0A0A0000006465633A202020201C
:10472000B2CECAFD3130BDF8D6C6CFD4CABE2CBA7F
:10473000F3B8FABFD5B8F12BCAFDD7D6BCB4D6B4FE
:10474000D0D0BDF8D6C6D7AABBBB0D0A0A00000060
:1047500072756E74696D653A312CBFAAC6F4BAAF32
:10476000CAFDD4CBD0D0BCC6CAB13B302CB9D8B16D
:10477000D5BAAFCAFDD4CBD0D0BCC6CAB13B0D0AA6
:104780000A000000C7EBB0B4D5D5B3CCD0F2B1E08D
:10479000D0B4B8F1CABDCAE4C8EBBAAFCAFDC3FB16
:1047A000BCB0B2CECAFDB2A2D2D4BBD8B3B5BCFCA9
:1047B000BDE1CAF82E0D0A002D2D2D2D2D2D2D2DEC
:1047C0002D2D2D2D2D2D2D2D2D2D2D2D2D2D2D2D19
:1047D0002D2D414C49454E54454B2D2D2D2D2D2D24
:1047E0002D2D2D2D2D2D2D2D2D2D2D2D2D2D2D2DF9
:1047F0002D2D2D200D0A00002D2D2D2D2D2D2D2D93
:104800002D2D2D2D2D2D2D2D2D2D2D2D2D2D2D2DD8
:104810002DBAAFCAFDC7E5B5A52D2D2D2D2D2D2DFA
:104820002D2D2D2D2D2D2D2D2D2D2D2D2D2D2D2DB8
:104830002D2D2D2D200D0A001001002025730D0AAD
:1048400000000000F1A003F02BFF00200B901AE005
:10485000FE4909689DF82C2001EBC20101AB02AAB8
:10486000486803A900F076FCF84800689DF82C1011
:1048700050F8312003A9F6A003F012FF9DF82C0098
:10488000401CC0B20B90F148007D9DF82C1088426E
:10489000DEDCAFF2CC3003F003FF83E0AFF2D830C0
:1048A00003F0FEFE0BAA03A9204600F02FFD9DF8A1
:1048B0002C00C8B9694603A800F0C1FB0B909DF815
:1048C0002C0020B9E7A0009903F0EAFE0EE09DF865
:1048D0002C00042801D002206BE5E5A003F0E0FEE7
:1048E0000120DA49C87501E0022062E5DFA003F08B
:1048F000D7FE57E0DDA003F0D3FE0BAA03A92046A4
:1049000000F004FD9DF82C00C8B9694603A800F02A
:1049100096FB0B909DF82C0020B9DAA0009903F0CB
:10492000BFFE0EE09DF82C00042801D0022040E5D7
:10493000D7A003F0B5FE0020C449C87501E00220ED
:1049400037E5CAA003F0ACFE2CE0C8A003F0A8FE37
:104950000BAA03A9204600F0D9FC9DF82C00C8B989
:10496000694603A800F06BFB0B909DF82C0078B90A
:10497000B649009881F8EC00084690F8EC0018B1B0
:10498000C8A003F08DFE07E0CDA003F089FE03E090
:1049900002200EE502200CE5B4A003F081FE01E048
:1049A000012006E500BF002003E5CC48008820F088
:1049B0000100CA4908804FF6FF70C8491C310880C1
:1049C0000020C64914310880A049C1F8F0007047A2
:1049D000C248008800F0010040B19C48D0F8F000C7
:1049E0004FF6FF7108449949C1F8F0009748D0F894
:1049F000F000BA491431098808449449C1F8F0001C
:104A00000846D0F8F000704710B5B448008800F0B0
:104A1000010058B18D49086980470020AF49143121
:104A200008804FF47A70AD491C310880AB4800888B
:104A300020F00100A949088010BD7FB505460C464D
:104A40000121042002F091F8ADF80850ADF80440BF
:104A50000020ADF80A00ADF8060001A99F48103803
:104A600002F012FF012241219C48103803F083FA22
:104A70001E208DF8000003208DF801008DF8020043
:104A800001208DF80300684602F0CFFA0121934817
:104A9000103803F055FA7FBD10B5044604EBC4008E
:104AA00000EB04100122C2EB800081B24FF47A7057
:104AB000FFF7C3FF01206549C87510BD30B595B03B
:104AC000054613AB12AA09A9284600F043FB044689
:104AD00014B1204615B030BD0020149026E05B498B
:104AE00009689DF8502001EBC20113AB11AA486878
:104AF00001A900F02FFB04460CB12046EAE709A902
:104B000001A800F069FA60B99DF844009DF84810CA
:104B1000884201DD0220DDE79DF850004B49887591
:104B20000AE09DF85000401CC0B214904748007D38
:104B30009DF850108842D2DC00BF4448007D9DF8AB
:104B40005010884201D10420C4E714A9284600F07F
:104B50004EFC04460CB12046BCE79DF850003B4992
:104B600048750020B6E72DE9F0419AB00026374895
:104B7000847D007DA04202DC1AB0BDE8F08133499B
:104B8000096801EBC40106AB07AA486808A900F050
:104B9000E1FA08A952A003F083FD0025BAE02B48F2
:104BA000008B0121A9400840D8B122214EA003F07A
:104BB00077FD284600F00EFC244924314718394679
:104BC0004AA003F06DFD222147A003F069FD2846AD
:104BD00000F000FC1D492431084410A941F82500CB
:104BE0008EE0284600F0F6FB18492431085810A939
:104BF00041F825001548C07D30B910A850F825109F
:104C00003BA003F04DFD7BE074E000002D2D2D2D29
:104C10002D2D2D2D2D2D2D2D2D2D2D2D2D2D2D2DC4
:104C20002D2D2D2D2DBAAFCAFD204944202D2D2D1F
:104C30002D2D2D2D2D2D2D2D2D2D2D2D2D2D2D2DA4
:104C40002D2D2D2D2D2D2D2D200D0A001001002094
:104C500025732069642069733A0D0A30582530386D
:104C6000580D0A004845583A305825580D0A00009A
:104C70003136BDF8D6C6B2CECAFDCFD4CABE210DDC
:104C80000A0000004445433A256C750D0A000000F7
:104C90003130BDF8D6C6B2CECAFDCFD4CABE210DC2
:104CA0000A00000052756E2054696D652043616CE6
:104CB00063756C6174696F6E204F4E0D0A000000C1
:104CC00052756E2054696D652043616C63756C612B
:104CD00074696F6E204F46460D0A000010080040B0
:104CE0000D0A2573280000002563000025730000CD
:104CF000256C750010A850F8251095A003F0D0FC85
:104D00009DF81C00401EA84202D093A003F0C8FCEE
:104D1000681CC5B29DF81C008542FFF640AF8FA00D
:104D200003F0BEFCFFF741FE8D48407D0B280DD2FD
:104D3000DFE800F0060D151E27323F4E5F72870038
:104D40008749096851F834008047064690E0844A54
:104D5000126852F8341010988847064688E0804B55
:104D60001B6853F83420DDE91001904706467FE0C8
:104D70007B4F3F6857F8343010A807C8984706465D
:104D800076E0DFF8DCC1DCF800C05CF8347010A815
:104D90000FC8B84706466BE01498DFF8C4C100900E
:104DA000DCF800C05CF8347010A80FC8B84706469D
:104DB0005EE0DDE91401DFF8A8C1CDE90001DCF80F
:104DC00000C05CF8347010A80FC8B84706464FE022
:104DD000DDE914121698DFF888C1CDE900120290BF
:104DE000DCF800C05CF8347010A80FC8B84706465D
:104DF0003EE0DDE91423DDE91610DFF864C1CDE9FA
:104E00000023CDE90210DCF800C05CF8347010A873
:104E10000FC8B84706462BE0DDE9163218991598F9
:104E2000CDE90232049101901498DFF834C100906A
:104E3000DCF800C05CF8347010A80FC8B84706460C
:104E400016E0DDE91623DDE91810CDE90223CDE9EE
:104E50000410DDE91401DFF808C1CDE90001DCF838
:104E600000C05CF8347010A80FC8B847064600BFF1
:104E700000BFFFF7ADFD9DF8180001280CD13848A0
:104E8000C07D20B9314637A003F00AFC07E0314667
:104E900036A003F005FC02E033A003F001FC30482B
:104EA00090F8EC0088B12E48D0F8F0000A21B0FB51
:104EB000F1F201FB12072A48D0F8F000B0FBF1F83C
:104EC0003A4641462CA003F0EBFB00BF54E670B518
:104ED0003148008800F40040002833D02E4805787F
:104EE00000202E4948551E4881682C4888470446B2
:104EF0001CB91B49C868804721E02848FFF74CFAD5
:104F00000546012D00D02C46CCB1012C06D0022C38
:104F100008D0032C0AD0042C10D10BE020A003F001
:104F2000BFFB0BE021A003F0BBFB07E022A003F0D6
:104F3000B7FB03E023A003F0B3FB00BF00BF0020DA
:104F40001549088070BD01460868704701607047C8
:104F500030582558000000002C00000029000000F7
:104F6000100100203D256C753B0D0A003D30582591
:104F7000583B0D0A0000000046756E6374696F6E41
:104F80002052756E2054696D653A25642E25316472
:104F90006D730D0A0000000068030020F613002066
:104FA000BAAFCAFDB4EDCEF3210D0A00B2CECAFDF0
:104FB000B4EDCEF3210D0A00B2CECAFDCCABB6E003
:104FC000210D0A00CEB4D5D2B5BDC6A5C5E4B5C481
:104FD000BAAFCAFD210D0A0002460AE010780B782C
:104FE000984201D001207047107800B902E0521CAD
:104FF000491CF3E700BF0020F5E706E002780A70DD
:10500000027802B902E0401C491CF7E700BF704774
:105010000146002005E00A7802B903E0421CD0B244
:10502000491CF8E700BF704710B50246012000E0B8
:1050300050430B00A1F10104E1B2F9D110BD2DE9FB
:10504000F04307460E4600254FF00A083C46002074
:1050500030601FE02078392802DC207830280ADA16
:105060002078462802DC2078412804DA2078582865
:1050700009D1012D07D12078412801DB4FF010081C
:10508000681CC5B205E0207800B904E00120BDE845
:10509000F083641CDEE700BF3C46B8F1100F0FD16F
:1050A000032D01DA0220F2E72078302806D160785B
:1050B000582803D1A41CA81EC5B204E00320E6E7CB
:1050C0000DB90420E3E71BE00DB1681EC5B22078DE
:1050D000392806DC2078302803DB2078A0F130095D
:1050E00002E02078A0F1370929464046FFF79CFFEF
:1050F000316809FB00103060641C207800B900E0C2
:10510000E2E700BF0020C2E710B50446002010709F
:105110000BE020780870641C491C1078401C10704B
:105120001078984201DB012010BD2078202802D0A1
:1051300020780028EDD10020087000BFF4E7014678
:10514000491C00E0491C0878202801D10029F9D128
:10515000087870472DE9FF4F85B0804689460027C3
:10516000002004900390012002904FF0000B0025D6
:1051700044461DE02078202816D005F07F00052841
:1051800012DA0DB945F0800505F07F00042803D13F
:1051900020782A2800D00EE0207805F07F010DF855
:1051A0000100681CC5B202E0852D00D103E0641C3B
:1051B00020780028DED100BF8DB1002005F07F01EE
:1051C0000DF80100CBA16846FFF706FF18B90021D2
:1051D0000898017002E001210898017000254FF045
:1051E000000A444614E0641C0AF1010000F0FF0AC2
:1051F0002078202802D020782A2809D12046FFF7DD
:105200009EFF0646282E03D02A2E01D0CDF810A0EE
:105210002078282802D020780028E4D14446049839
:1052200010B10498401C04444FF0000A002654E0DA
:10523000207810B94FF0010A50E02078282803D1D7
:1052400016B9781CC7B213E02078292808D13EB9D6
:1052500017B1781EC7B201E04FF0010A47B93DE02F
:105260002078222804D10EB9012000E00020064653
:1052700047B9207820282FD0207889F8000009F13C
:10528000010929E020782C2804D101200290681C13
:10529000C5B214E02078202811D0207828280ED01C
:1052A0004DB9BBF1050F06DA20780DF80B000BF1B4
:1052B000010000F0FF0B0298401CC0B20290012FC9
:1052C0000AD10298022807D10298401CC0B202906D
:1052D0000398401CC0B20390641CA9E700BF039868
:1052E000012809D100200DF80B0082A16846FFF7C4
:1052F00073FE08B9002003900799039808700020F6
:1053000089F80000504609B0BDE8F08FF0B50346BB
:105310001546002000220026002455E01F782C2F7F
:1053200001D104B901221F78292F01D01F780FB9AC
:1053300004B94AE0002E34D11F78302F02DB1F78E9
:10534000392F11DD1F78612F02DB1F78662F0BDDEF
:105350001F78412F02DB1F78462F05DD1F78582F5D
:1053600002D01F78782F0CD102B12EE01F78612F68
:1053700003DB1F78203F0F7001E01F780F70491C7E
:105380001FE01F78222F04D102B11EE00126012464
:1053900017E01F78202F14D01F782C2F11D0FF2654
:1053A00013E01F78222F00D1002402B10DE044B198
:1053B0001F785C2F02D15B1C471CF8B21F780F705E
:1053C000491C471CF8B25B1CA8E700BF00270F7000
:1053D0002E70F0BD02460020002105E0474B5B5CCB
:1053E0000344D8B24B1CD9B29142F7DB70472DE988
:1053F000F043B5B005460F460024002604E0002126
:105400003E488155701CC6B20A2EF8DB06E06D1CC2
:10541000287818B9012035B0BDE8F083287828280D
:10542000F5D16D1C61E034AA69462846FFF76EFF8E
:10543000064635449DF8D00020B1012827D0FF282A
:105440004CD149E09DF8000000B333A96846FFF74E
:10545000F6FD06460EB10220DDE72046FFF7BAFF53
:1054600026490A31339A0A50A1F12400008B012108
:10547000A140884321491A39088304211F48015556
:10548000601CC4B20A2C01DD0320C4E726E0684694
:10549000FFF7BEFD401C00F0FF082046FFF79AFF13
:1054A00016490A3100EB010949466846FFF7A5FD98
:1054B00012481A38018B0120A040014388B20F49DD
:1054C0001A3908830D4800F80480601CC4B20A2C05
:1054D00001DD03209FE701E002209CE700BF287860
:1054E000292801D0287800B900E09CE700BF3C7073
:1054F000002090E7766F6964000000002A01002018
:1055000070B50446002514B1012C1DD10BE0FBF74A
:10551000B2FA054635B1FBF769F9FF20FBF760F9F0
:10552000FBF769F912E0FEF7B3FD704800884EF60C
:105530001671884204D142F268606D49088002E029
:1055400000206B49088001E0012500BF00BF0DB1BC
:10555000012070BD0020FCE70146002070472DE9C6
:10556000F04107460E4615461C464FF0000814B998
:105570000420BDE8F08117B1012F20D110E0E2B284
:1055800029463046FBF73EFB8046B8F1000F06D0B7
:10559000FBF72CF9FF20FBF723F9FBF72CF911E0BF
:1055A00009E069024FF400723046FEF7CBFD6D1C36
:1055B00006F50076641E002CF3D1A04602E04FF001
:1055C000010800BF00BFB8F1000F01D10020D0E7F3
:1055D0000120CEE72DE9F04107460E4615461C4650
:1055E0004FF0000814B90420BDE8F08117B1012F75
:1055F00016D106E0E2B229463046FBF73BFB804677
:1056000011E009E069024FF400723046FEF732FE05
:105610006D1C06F50076641E002CF3D1A04602E056
:105620004FF0010800BF00BFB8F1000F01D100200A
:10563000DAE70120D8E72DE9F04106460F46154686
:105640002EBB37B1012F1AD0022F0FD0032F1BD141
:1056500011E0002027490860FBF7F6F808B900249C
:1056600000E001240120234908600FE04FF400709E
:10567000288000240AE008202880002406E0FBF7A8
:10568000BFF92860002401E0042400BF1DE0012EC2
:105690001AD137B1012F0FD0022F04D0032F10D110
:1056A00006E000240FE04FF40070288000240AE098
:1056B00008202880002406E00D4800882860002487
:1056C00001E0042400BF00E001242046BDE8F08191
:1056D0000020704710B50446204602F0B5FF10BD0B
:1056E00010B50446204602F0A3FF10BD22000020A2
:1056F000040200209001214270B504460D46F7498E
:105700002A4608682146FCF7DEFD70BD70B50446E8
:105710000D462A462146F2480068FCF7FFFD064682
:10572000304670BD10B5EE480068FDF7E9F800207E
:1057300010BD2DE9F047044600260027E9A002F03D
:10574000AFFFB14625E0ED4B4FF40072EC48016825
:10575000E3480068FCF7A2FE064626B13146E9A000
:1057600002F09EFF1BE0E5480088384487B2002520
:1057700007E0E3480068415DE6A002F091FF681C85
:1057800085B2DE4800688542F3D309F101001FFAB3
:1057900080F9E11704EBD151B9EB612FD3DB00BFE6
:1057A000E11704EBD1514912A4EB412131B3A046DA
:1057B000E01704EBD0504012A4EB4022CF4BD0486E
:1057C0000168C7480068FCF769FE064626B1314605
:1057D000D1A002F065FF11E0C8480088384487B2C4
:1057E000002507E0C6480068415DCAA002F058FFE6
:1057F000681C85B2C14800688542F3D31FB13946A1
:10580000CAA002F04DFFCFA002F04AFF3046BDE82B
:10581000F08770B505460E46CFA002F041FF314635
:10582000D3A002F03DFFD74B32462946AC48006872
:10583000FCF715FF044624B12146D3A002F030FF47
:1058400004E0D0480168D5A002F02AFFD9A002F0F8
:1058500027FF204670BD10B504462146DA48FDF703
:10586000A6F910BD10B5D848FDF7E5F910BD70B523
:1058700040F2FF10D549C861C86902F0E5FED3497E
:105880008861D148FDF7E2F9044614B9CF48407A5F
:1058900028B9CE49886902F0CBFE204670BDCB48BE
:1058A0008069007810B1C948806901E0C7480930B3
:1058B0000546C7A002F0F4FEC3488188C8A002F0E4
:1058C000EFFEC148C188C9A002F0EAFEBE48816867
:1058D000CAA002F0E5FEBC48C168CCA002F0E0FE20
:1058E000B9480169CDA002F0DBFE83A002F0D8FE2A
:1058F0002946CEA002F0D4FEB4480168D0A002F040
:10590000CFFEB2488188D3A002F0CAFEAF48C1885A
:10591000D5A002F0C5FEAD48017AD8A002F0C0FEC5
:1059200075A002F0BDFEA949886902F081FE002041
:10593000B4E770B5054640F2FF10A449C861C869D4
:1059400002F082FEA149886129469F48FDF72FF9A0
:1059500004460CBB68A002F0A3FE1BE09B499A48DA
:10596000FDF774F9044614B99848407A00B912E07A
:1059700096488069007810B19448806901E09348A6
:10598000093006462946C2A002F08AFE3146C1A06F
:1059900002F086FEE2E700BF8C49886902F048FE0B
:1059A000204670BD2DE9FC410646002000900024F1
:1059B000002501AA69463046FDF7ABF90746002FDE
:1059C00019D101984069801E0199897800FB01F581
:1059D00001988078009900FB01F4B5F5A04F05D23D
:1059E00062086908ADA002F05BFE04E0E20AE90A81
:1059F000B4A002F055FE2046BDE8FC8110B5044677
:105A0000214637480068FCF78BFF10BD344800681A
:105A10008068704732480068C068704710B5044617
:105A20002046FDF7B4FA10BD70B504460D46164683
:105A3000324629462046FDF7BEFD70BD10B504462E
:105A40002046FDF743FA10BD70B504460D462946C1
:105A50002046FDF7C9FB70BD30B587B00446002075
:105A6000019001AA02A92046FDF75BFC054655B945
:105A700002AA21469DA002F013FE2146A1A0019A90
:105A800002F00EFE03E02946A4A002F009FE07B0D2
:105A900030BD70B504462046FDF7A2FC054625B989
:105AA0002146A4A002F0FCFD03E02946A7A002F0D5
:105AB000F7FD70BD70B504460948214602681048DC
:105AC0000068FEF789F80546287800B970BD2946B8
:105AD000A6A002F0E5FD00BFF8E7000040030020AB
