:020000040800F2
:1000000098AF00209DC40008A5140008A71400089C
:10001000AB140008AF140008B3140008000000007F
:10002000000000000000000000000000B7140008FD
:10003000B914000800000000BB140008BD1400083B
:10004000B7C40008B7C40008B7C40008559000083A
:10005000B7C40008B7C40008B7C40008B7C4000894
:10006000B7C40008B7C40008B7C40008B7C4000884
:10007000B7C40008B7C40008B7C40008B7C4000874
:10008000B7C40008B7C40008B7C40008B7C4000864
:10009000B7C40008B7C40008B7C40008B7C4000854
:1000A000B7C40008B7C40008B7C40008B7C4000844
:1000B000B7C40008B7C40008CDB60008B7C400082C
:1000C000B7C40008B7C40008B7C40008B7C4000824
:1000D000B7C4000813C40008B7C40008B7C40008B8
:1000E000B7C40008B7C40008B7C40008B7C4000804
:1000F000B7C40008B7C40008B7C40008B7C40008F4
:10010000B7C40008B7C40008B7C40008B7C40008E3
:10011000B7C40008B7C40008B7C40008B7C40008D3
:10012000B7C40008B7C40008B7C40008B7C40008C3
:10013000DFF80CD00DF036FA0048004769100008CF
:1001400098AF00202DE9F04180460C461546FE4848
:10015000006850B90221FD4804F048FE05200CF06B
:10016000D0F8FB48006804F0B9FF40460DF02BF8CA
:10017000064632460B46F7A1F7480DF09DFA0821D6
:10018000F54804F0B6FE0221F44804F0B2FE204621
:100190000DF019F8064632460B46EEA1EE480DF07A
:1001A0008BFA0821EC4804F0A4FE0221EB4804F08D
:1001B000A0FEEB4800680DF006F8064632460B46F6
:1001C000E4A1E5480DF078FA0821E34804F091FE37
:1001D0000221E24804F08DFEE24800680CF0F3FFD3
:1001E000064632460B46DBA1DB480DF065FA0821D6
:1001F000D94804F07EFE0221D84804F07AFE284651
:100200000CF0E1FF064632460B46D2A1D2480DF073
:1002100053FA0821D04804F06CFE0221CF4804F0C4
:1002200068FED14800680CF0CEFF064632460B4609
:10023000C8A1C9480DF040FA0821C74804F059FE8A
:100240000221C64804F055FEC84800680CF0BBFF08
:10025000064632460B46BFA1BF480DF02DFA0821D5
:10026000BD4804F046FE0221BC4804F042FEC048EE
:10027000C0A10268B8480DF01FFA0821B64804F082
:1002800038FE0221B54804F034FEBB48B9A102682B
:10029000B1480DF011FA0821AF4804F02AFE0221FE
:1002A000AE4804F026FEB548B2A10268AA480DF097
:1002B00003FA0821A84804F01CFE0221A74804F014
:1002C00018FEAF48ABA10268A3480DF0F5F908216C
:1002D000A14804F00EFE0221A04804F00AFE02210B
:1002E0009E4804F006FE98480068052810D104F0E6
:1002F000FDFE04F0FBFE9649086008460168A1A0D7
:100300000DF0CAF904F07EFD00208F49086004E07A
:100310008D480068401C8C490860BDE8F0812DE9DB
:10032000F04180460C461546A048006890B98C48BC
:10033000C0F800809E48C0F800808A4804609D484C
:1003400004609D4805609D48056098480068401C11
:10035000964908609A480168954800680CF097FC37
:1003600006463146924800680CF01BFD954908602E
:100370007B48016840460CF0DCFC07469148016868
:1003800038460CF0DCFC06467548016830460CF037
:100390007EFC73490860864801688A4800680CF052
:1003A000CEFC07468248016838460CF0C5FC06467C
:1003B0008548016830460CF06AFC7D490860804839
:1003C00001687C4800680CF062FC064631467948BA
:1003D00000680CF0E6FC7B49086062480168204632
:1003E0000CF0A7FC07467748016838460CF0A7FCDC
:1003F00006465C48016830460CF049FC59490860E3
:100400006C4801686F4800680CF099FC0746694821
:10041000016838460CF090FC06466B48016830468F
:100420000CF035FC63490860654801686348006862
:100430000CF02DFC06463146604800680CF0B1FC1B
:10044000604908605C48016828460CF072FC074669
:100450005C48016838460CF072FC06465648016854
:1004600030460CF014FC5449086054480168554863
:1004700000680CF064FC07465048016838460CF0F0
:100480005BFC06465048016830460CF000FC4B49C6
:100490000860334800680CF096FE064632460B466C
:1004A0004AA00DF0F9F82F4800680CF08CFE0646C3
:1004B00032460B464BA00DF0EFF83F4800680CF0B9
:1004C00082FE064632460B464CA00DF0E5F8BDE82C
:1004D000F0812DE9F04180460C4615464D480068F4
:1004E00090B94D48C0F800804C48C0F800804C4896
:1004F00004604C4804604C4805604C480560454821
:100500000068401C43490860494801684348006846
:100510000CF0BDFB06463146404800680CF041FC3B
:10052000444908603C48016840460CF002FC07461C
:100530004048016838460CF002FC0646364801681F
:1005400030460CF0A4FB77E00001002000050020FD
:10055000080000202566000000000020C4ED00080F
:10056000780000207C000020280100202C010020C1
:100570004C0000202564000048000020FC00002002
:10058000F80000200D0AB5B1C7B0D2D1D0B4C8EB85
:10059000B5C4CAFDBEDDB5C4C4A9B6CBCEBBD6C3F7
:1005A000203D202564200D0A0000000024000020CA
:1005B0008400002088000020800000208C000020A3
:1005C000140000201800002010000020C2CBB2A8A8
:1005D000BAF378D6E1BCD3CBD9B6C8CEAA2025666B
:1005E0000D0A0000C2CBB2A8BAF379D6E1BCD3CBD6
:1005F000D9B6C8CEAA2025660D0A0000C2CBB2A883
:10060000BAF37AD6E1BCD3CBD9B6C8CEAA20256638
:100610000D0A0000B4000020BC000020C80000202B
:10062000C0000020CC000020C4000020D00000202A
:1006300094000020A4000020FE490860FE480168E4
:10064000FE4800680CF07BFB0746FB480168384613
:100650000CF072FB0646FA48016830460CF017FBB6
:10066000F5490860F7480168F74800680CF00FFB8F
:1006700006463146F44800680CF093FBEF490860E9
:10068000F248016820460CF054FB0746EB4801682D
:1006900038460CF054FB0646EC48016830460CF036
:1006A000F6FAEA490860E8480168E44800680CF096
:1006B00046FB0746E448016838460CF03DFB064619
:1006C000DF48016830460CF0E2FADF490860DD4897
:1006D0000168DF4800680CF0DAFA06463146DC486B
:1006E00000680CF05EFBD5490860DA4801682846CE
:1006F0000CF01FFB0746D148016838460CF01FFB81
:100700000646D448016830460CF0C1FAD149086069
:10071000CF480168C94800680CF011FB0746CC4877
:10072000016838460CF008FB0646C54801683046AB
:100730000CF0ADFAC6490860BE4800680CF043FDF5
:10074000064632460B46C4A00CF0A6FFBF48006820
:100750000CF039FD064632460B46C5A00CF09CFF56
:10076000BC4800680CF02FFD064632460B46C6A07A
:100770000CF092FFBDE8F08170B50446C8480068EF
:1007800040B9C8480460C8480460C8480068401CB4
:10079000C6490860C6480168C34800680CF077FA8B
:1007A00005462946C04800680CF0FBFAC1490860BC
:1007B000BC48016820460CF0BCFA0646BD480168FA
:1007C00030460CF0BCFA0546B648016828460CF0E5
:1007D0005EFAB4490860B4480168B64800680CF095
:1007E000AEFA0646B048016830460CF0A5FA054658
:1007F000B148016828460CF04AFAAB49086070BD60
:100800002DE9F04F8BB00546884614462146204618
:100810000CF095FA4146019040460CF090FA009099
:1008200001990CF034FA83460CF0CDFCCDE90201BD
:100830000EF096FACDE9040128460CF0C4FC81467E
:10084000DDE904230CF004FC06460EF01BF89B4A7D
:100850009B4BCDE906010CF089FBCDE908010CF0BA
:10086000F5FC98490860214620460CF068FA2946B4
:10087000019028460CF063FA009001990CF007FAF9
:1008800083460CF0A0FCCDE902010EF069FA0646A1
:100890000F4640460CF097FC32463B46CDE904013A
:1008A0000CF0D6FBCDE906010DF0ECFF834A844B3A
:1008B000CDE908010CF05AFB81460CF0C7FC8249D7
:1008C0000860414640460CF03AFA29460190284615
:1008D0000CF035FA009001990CF0D9F983460CF030
:1008E00072FCCDE902010EF03BFA81468A462046B1
:1008F0000CF069FC4A465346CDE904010CF0A8FB14
:1009000006460DF0BFFF6D4A6D4BCDE906010CF0B8
:100910002DFBCDE908010CF099FC6C490860694891
:1009200000680CF050FC064632460B4668A00CF0FE
:10093000B3FE654800680CF046FC064632460B469E
:1009400066A00CF0A9FE614800680CF03CFC06466D
:1009500032460B4664A00CF09FFE0BB0BDE8F08F52
:100960002DE9F14F84B0634800680CF0FFFB061ED0
:1009700001DB314600E0714208460CF0E6FB04461C
:100980005D4A5E4B0CF032FC02D2002059490860EF
:100990005B480168574800680CF0D1F90446594893
:1009A000016820460CF073F95649086004980CF071
:1009B0000AFC8046544A554B0CF0D8FA06460022F1
:1009C000534B0CF045FB04460CF040FC51490860C9
:1009D000084600680CF0F7FB80460EF023F9064647
:1009E0000F464D4801684D480CF0A9F90290414866
:1009F000016800200CF0A3F9019002990CF0D1F9E4
:100A000003903F48016803980CF099F981463C48EF
:100A1000016848460CF093F980460CF0D4FB8246FE
:100A200032463B460CF0A2FA04460CF00FFC3C495F
:100A3000086077E0BC000020C8000020A40000206F
:100A40009C00002094000020CC000020C00000206A
:100A5000D0000020C4000020C2CBB2A8BAF378D6E0
:100A6000E1BDC7CBD9B6C8CEAA2025660D0A0000C5
:100A7000C2CBB2A8BAF379D6E1BDC7CBD9B6C8CE3E
:100A8000AA2025660D0A0000C2CBB2A8BAF37AD616
:100A9000E1BDC7CBD9B6C8CEAA2025660D0A000095
:100AA000B8000020D4000020E00000202400002036
:100AB00098000020A8000020A0000020872EDE79EA
:100AC00013A64C40EC000020F0000020F4000020B1
:100AD000616E676C65782025660D0A00616E676C33
:100AE00065792025660D0A00616E676C657A2025A0
:100AF000660D0A00780000207B14AE47E17A943F2F
:100B0000180100201C0100206F1283C0CA21094077
:100B100000806640300100209000002000007A44F0
:100B200020010020FE4800680CF04DFB06460EF048
:100B3000C7F804460D46FB480168FB480CF0FFF877
:100B40000290FA48016800200CF0F9F8019002992F
:100B50000CF027F90390F648016803980CF0EFF8C1
:100B60000746F348016838460CF0E9F806460CF0F1
:100B70002AFB804622462B460CF0F8F982460CF000
:100B800065FBEC4908600021E54800680CF084FB37
:100B900026D2E34800680CF016FB0446E64AE74B11
:100BA0000CF024FB1CD2E64800680CF0DFFA041EAF
:100BB00001DB214600E0614208460CF0B8FAE0494A
:100BC0000860DC4800680CF0D1FA041E01DB214605
:100BD00000E0614208460CF0AAFAD649086085E0B8
:100BE000CF4800680CF0EFFA0446D34AD34B0CF020
:100BF00015FB24D2CA4800680CF0E5FA0446CE4A38
:100C0000D04B0CF0F3FA1AD2CA4800680CF0AEFAD6
:100C1000041E01DB214600E0614208460CF087FA21
:100C2000C44908600021C64800680CF035FB5DD25D
:100C3000C348006880F00040C149086056E0B848E9
:100C400000680CF0C0FA0446BB4ABF4B0CF0CEFA69
:100C500022D2B34800680CF0B6FA0446B64ABB4B41
:100C60000CF0DCFA18D20021B54800680CF014FB37
:100C700005D2B348006880F00040B1490860002107
:100C8000AC4800680CF008FB30D2AA48006880F03D
:100C90000040A849086029E00021A14800680CF044
:100CA000F1FA23D29E4800680CF08DFA0446A24A5D
:100CB000A54B0CF0B3FA19D2A14800680CF056FA13
:100CC000041E01DB214600E0614208460CF02FFAC9
:100CD0009B4908600021974800680CF0DDFA05D2B6
:100CE0009448006880F00040924908609448016888
:100CF000974800680BF0CBFF954908608D48016864
:100D0000944800680BF0C3FF9249086005B0BDE845
:100D1000F08F70B5054600248F480068052823DC55
:100D20008E48016828460BF0B2FF8C4908608A485B
:100D3000006805280DD18A49884800680CF031F810
:100D4000884908600846016800200BF0F2FF8649D8
:100D5000086081480068401C7F49086000242146E3
:100D600082A00CF099FC6AE07F48016828460BF0ED
:100D70008EFF8649086086480168844800680CF048
:100D800081FA17D283480068401C824908600846EF
:100D9000006881490968884206DB4FF0FF3421462C
:100DA00072A00CF079FC4AE0002421466FA00CF000
:100DB00073FC44E000207749086078480168734874
:100DC00000680CF069FA16D275480068401C744936
:100DD00008600846006873490968884205DB0124F9
:100DE000214662A00CF058FC29E0002421465FA0B7
:100DF0000CF052FC23E0012C19D16B480068401C18
:100E0000694908600846006868490968884208DB43
:100E10000020634908600024214654A00CF03CFCEB
:100E20000DE00124214651A00CF036FC07E0002023
:100E30005B490860002421464CA00CF02DFC55486D
:100E4000006855490968884204D159480068401C27
:100E5000574908605248006852490968884204D1DD
:100E600054480068401C534908605248016852A029
:100E70000CF012FC4E48016856A00CF00DFC70BD41
:100E800070B504465A480068142805DA594858498C
:100E9000096840F82140E6E055480068142190FBBD
:100EA000F1F201FB1200534951F820502946204627
:100EB0000BF03FFF5049086050494F4800680CF064
:100EC000EBF91AD24E480068401C4D4908600846AC
:100ED0000068052804DD00204A4908604A49086086
:100EE00047480068142807DD002045490860474846
:100EF0000068401C45490860ABE045493E48006831
:100F00000CF0C0F90AD240480068401C3E49086015
:100F100008460068052802DD00207BE08BE07DE0CC
:100F2000300100209000002000007A44780000206A
:100F300018010020240100206F1283C0CA21F93F4C
:100F400020010020CA210940CA21F9BFCA2109C0D5
:100F5000280100202C01002028000020540000203F
:100F60000000C040580000207000002058D6E1B7B3
:100F7000BDCFF2C9CFB5C4BCD3CBD9B6C8B7BDCFEE
:100F8000F2CEAA2025640D0A0000000050000020C7
:100F90006800002040000020300000206C0000208D
:100FA00044000020340000203C00002038000020D5
:100FB000480000204C00002058D6E1B7BDCFF2C950
:100FC000CFB5C4BCD3CBD9B4CECAFDCEAA2025643C
:100FD0000D0A000058D6E1B7BDCFF2C9CFB5C4BCE9
:100FE000F5CBD9B4CECAFDCEAA2025640D0A0000E7
:100FF0000401002050050020140100200000704171
:10100000080100200C01002010010020FC0000203D
:10101000000070C1F6490860F6490860F6480068AB
:10102000142816DD0020F4490860F4480068401CCC
:10103000F24908600DE0EE480068401CEC49086089
:1010400008460068052804DD0020EA490860EA49EE
:101050000860EB480068142190FBF1F201FB1200DC
:10106000E84941F8204070BD96B00024002010905F
:101070000F900E90804600BF04900BF005F94FF4DE
:10108000A06008F0DBFB4FF4E1300BF076F900F0E4
:1010900090FB02F0B9FD4FF4A06008F0CFFB0BF01D
:1010A000F3F84FF4E1300BF068F903F0C9FDD648CE
:1010B00041684820884708F008FB09E0D3A00CF0FD
:1010C000EBFA4FF448700BF01CF9D4A00CF0E4FAE2
:1010D00007F061FF0028F1D106E0D4A00CF0DCFAA3
:1010E0004FF4FA600BF00DF908F021F90028F4D163
:1010F00003F0A6FDD14901220868D1A105F0FFFD4A
:10110000CE4901224868CFA105F0F9FD06E0CEA046
:101110000CF0C2FA4FF4FA600BF0F3F814AA15A918
:10112000CDA003F02AFE0028F1D1CC488078CB492D
:101130004978CA4A1278C94BDB79CDE90032CDE94A
:101140000210C64883798288C5A1D1480CF0B4FA50
:101150000421CF4803F04AFE0A200BF0D2F803F036
:1011600051FE44E1CB48008800F4004010B1601CFF
:1011700084B23CE1601C84B2204604EBD07149107B
:10118000A4EB41010029ECD111AA12A913A800F087
:10119000DAFB04AA05A906A802F083FDB8F1000F46
:1011A00077D1BDF94C000BF0C2FF0390BA4801683B
:1011B00003980BF0C4FD0D90BDF94C000BF0B7FF88
:1011C0000390B548016803980BF0B9FD0A90BDF98A
:1011D00048000BF0ACFF0390AF48016803980BF098
:1011E000AEFD0C90BDF948000BF0A1FF0390AA489A
:1011F000016803980BF0A3FD0990BDF944000BF0C2
:1012000096FF0390A448016803980BF098FD0B909B
:10121000BDF944000BF08BFF03909F4801680398D1
:101220000BF08DFD0890BDF94C000BF080FF029093
:101230009948016802980BF082FD039010990BF019
:1012400026FD1090BDF948000BF071FF0290924806
:10125000016802980BF073FD03900F990BF017FDD6
:101260000F90BDF944000BF062FF02908A480168BC
:1012700002980BF064FD03900E990BF008FD0E90A0
:10128000049907980BF003FD079008F101085EE050
:10129000FFE7B8F10A0F5ADA08F10108BDF94C006E
:1012A0000BF045FF03907C48016803980BF047FD65
:1012B0000546BDF948000BF03AFF039076480168F7
:1012C00003980BF03CFD0646BDF944000BF02FFFE0
:1012D00003907148016803980BF031FD07462846DA
:1012E0000D990BF0D9FF00D20D9528460A990BF005
:1012F000C9FF00D20A9530460C990BF0CDFF00D201
:101300000C96304609990BF0BDFF00D2099638467D
:101310000B990BF0C1FF00D20B97384608990BF0E0
:10132000B1FF00D20897294610980BF0B0FC10903E
:1013300031460F980BF0ABFC0F9039460E980BF02E
:10134000A6FC0E90049907980BF0A1FC0790B8F149
:101350000A0F3CD10D9910980BF0EBFC02900A9902
:101360000BF0E7FC4FF0824103900BF01AFD814631
:101370000C990F980BF0DDFC029009990BF0D9FC49
:101380004FF0824103900BF00CFD83460B990E98B1
:101390000BF0CFFC029008990BF0CBFC4FF0824190
:1013A00003900BF0FEFC8246524659464846FEF733
:1013B000B6FF3A4907980BF0F4FC04904FF0000890
:1013C000002010900F900E900498FFF7C9FA04982F
:1013D000FFF756FD32480068FFF79BFCBDF94C0053
:1013E0000BF0A5FE03904946049AFEF7ABFEB9E662
:1013F0000C0100200801002010010020F80000204E
:101400000401002050050020E8030020525443202E
:101410004552524F522120202000000052544320B8
:10142000547279696E672E2E2E00000053442043BB
:10143000617264204572726F72210000B802002050
:10144000303A0000313A00004661746673204572FC
:10145000726F72210000000030000000F4150020BF
:10146000303A2F25303464C4EA25303264D4C225A2
:10147000303264C8D525303264CAB125303264B701
:10148000D625303264C3EBCAFDBEDD2E74787400FD
:1014900000050020E404002090000020000020410E
:1014A00078000020704700BFFEE700BFFEE700BFE6
:1014B000FEE700BFFEE770477047704770470000C7
:1014C0000CB50020019000906C48006840F480301A
:1014D0006A49086000BF6948006800F40030009065
:1014E0000198401C0190009818B90198B0F5A06FC0
:1014F000F1D16248006800F4003010B10120009082
:1015000001E0002000900098012843D15C48006869
:1015100040F010005A4908600846006820F00300B7
:1015200008600846006840F00200086053484068C0
:10153000524948600846406848600846406840F4A0
:10154000806048600846406820F47C104860084687
:10155000406840F4E81048600846006840F0807039
:10156000086000BF4548006800F000700028F9D00E
:101570004248406820F003004049486008464068FF
:1015800040F00200486000BF3C48406800F00C009A
:101590000828F9D10CBD10B5FFF792FF10BD10B5AA
:1015A0003648006840F00100344908600846406849
:1015B00034490840314948600846006832490840CB
:1015C0002E4908600846006820F48020086008461C
:1015D000406820F4FE0048604FF41F008860FFF769
:1015E000DAFF4FF000602949086010BD10B50021F6
:1015F00000200022214B5B6803F00C0121B104297B
:1016000006D0082928D107E0214B224C236027E08F
:101610001F4B204C236023E0184B5B6803F47010D1
:10162000164B5B6803F48032022303EB904022B92F
:10163000194B4343174C23600DE0104B5B6803F4D8
:10164000003323B1144B4343124C236003E0104B8F
:101650004343104C236003E00D4B0E4C236000BF4E
:1016600000BF064B5B68C3F303130C4CE15C094BF2
:101670001B68CB40074C236010BD000000100240E7
:10168000002002400000FFF8FFFFF6FE08ED00E03A
:1016900000127A003401002000093D0038010020CA
:1016A00070B505460C4600F0CDF9D02000F074FA74
:1016B00000F005FA18B100F0E3F9012070BD2846EA
:1016C00000F06AFA00F0FBF9204600F065FA00F03D
:1016D000F6F918B100F0D4F90120EFE700F0D0F9E5
:1016E0000020EBE770B504460025BC2C01DB01258A
:1016F00010E0622C01DB02250CE02A2C01DB032523
:1017000008E0142C01DB042504E00A2C01DB05258C
:1017100000E0062529461A20FFF7C2FF70BD70B50C
:101720000446B4F57A7F01DD4FF47A74042C00DAB4
:1017300004244FF47A7090FBF4F0401EC5B22946A1
:101740001920FFF7ADFF0546264604EBD671C1F31D
:101750004F00FFF7C7FF70BD70B5044600F072F987
:10176000D02000F019FA00F0AAF9204600F014FA8F
:1017700000F0A5F900F066F9D12000F00DFA00F0B4
:101780009EF9002000F031FA054600F079F928466C
:1017900070BD10B50446E006010E1C20FFF780FF67
:1017A00010BD10B50446E006010E1B20FFF778FFC0
:1017B00010BD10B500F02DF980216B20FFF770FFF0
:1017C00064200AF09EFD00216B20FFF769FF0320D3
:1017D000FFF7E7FF0020FFF7DCFF3220FFF79FFF56
:1017E00000213820FFF75CFF00216A20FFF758FF37
:1017F000FF212320FFF754FF80213720FFF750FF00
:101800007520FFF7A9FF0446682C0BD101216B203E
:10181000FFF746FF00216C20FFF742FF3220FFF761
:101820007EFF01E0012010BD0020FCE72DE9F04122
:1018300006460F4614461D4600F004F9002141EA11
:101840004601C8B200F0A8F900F039F920B100F063
:1018500017F90120BDE8F081384600F09DF900F04D
:101860002EF900F0EFF8012101EB4601C8B200F0BB
:1018700093F900F024F90DE0012C04D1002000F0D0
:10188000B4F9287003E0012000F0AFF92870601E61
:10189000C4B26D1C002CEFD100F0F2F80020D9E7A3
:1018A0002DE9F84F6B46022241216820FFF7BEFF69
:1018B0009DF801009DF8001040EA01200FFA80FA1F
:1018C00050460BF042FC804600224B4B0BF0C0FB15
:1018D00006464A4A4A4B0BF0A2FA04460BF0B6FC05
:1018E0008346484958460BF02AFA04460BF03EFC62
:1018F00000B2BDE8F88F2DE9FC4104460D461646BE
:101900006B46062243216820FFF790FF0746BFB9C8
:101910009DF801009DF8001040EA012000B22080EF
:101920009DF803009DF8021040EA012000B22880D3
:101930009DF805009DF8041040EA012000B23080B7
:101940003846BDE8FC812DE9FC4104460D461646AB
:101950006B4606223B216820FFF768FF0746BFB9A8
:101960009DF801009DF8001040EA012000B220809F
:101970009DF803009DF8021040EA012000B2288083
:101980009DF805009DF8041040EA012000B2308067
:101990003846BDE8FC812DE9F04105460E46174664
:1019A000984600F04FF8002141EA4501C8B200F026
:1019B000F3F800F084F820B100F062F80120BDE8EF
:1019C000F081304600F0E8F800F079F800240CE0EF
:1019D00018F8040000F0E0F800F071F818B100F019
:1019E0004FF80120EBE7601CC4B2BC42F0DB00F012
:1019F00047F80020E3E7000000407540A4703D0A6E
:101A0000D74342400000C84210B502200AF055FCFE
:101A100010BD08B5012110200BF06EF84FF4C05036
:101A2000ADF8000010208DF8030003208DF80200AF
:101A3000694686480AF0A4FD4FF4C05183480AF075
:101A40004CFE08BD10B58148406820F470407F49C5
:101A500048600846406840F44050486001207C4996
:101A600008607C49C1F8B001FFF7CEFF002078493B
:101A70000860FFF7C9FF00207649C1F8B00110BD2A
:101A800010B57248406820F47040704948600846BC
:101A9000406840F44050486000206D49091D0860CE
:101AA0006C49C1F8AC01FFF7AFFF01206849091D7F
:101AB00008606849C1F8AC01FFF7A6FF10BD10B57A
:101AC00000246248406820F470406049486008463D
:101AD000406840F40040486001205D490860FFF71D
:101AE00093FF01205B49C1F8B001FFF78DFF07E0CC
:101AF000601CC4B2FA2C03DDFFF7C2FF012010BD49
:101B00005348803800680028F2D15149091D086007
:101B100000BFF4E710B500204D49091D08604B488F
:101B2000406820F47040494948600846406840F4E5
:101B30004050486000204749C1F8AC01FFF764FFFE
:101B400001204349091D0860FFF75EFF002041495D
:101B5000C1F8B00110BD10B500203D49091D086055
:101B60003A48406820F47040384948600846406868
:101B700040F44050486001203649C1F8AC01FFF7FD
:101B800043FF01203249091D0860FFF73DFF002097
:101B90003049C1F8B00110BD70B504462B4840680B
:101BA00020F47040294948600846406840F440509D
:101BB000486000202649091D0860002512E0E00960
:101BC000234908606006040E01202249C1F8B001D3
:101BD000FFF71AFF00201E49091D0860FFF714FFD8
:101BE000681CC5B2082DEADB70BD70B5054600243F
:101BF0001648406820F47040144948600846406820
:101C000040F400404860002615E000201049091DFE
:101C10000860FFF7F9FE01200E49C1F8B001600627
:101C2000040E0B488038006808B1601CC4B2FFF78E
:101C3000EBFE701CC6B2082EE7DB15B9FFF78BFF71
:101C400001E0FFF767FF204670BD00000010014073
:101C5000AC0122420000224238B50446F74890F811
:101C60002400C0B114B10220009001E000200090D7
:101C7000F24A1268D17BF14A526810786B46012211
:101C8000FFF789FE10B14FF0FF3038BD9DF800100E
:101C9000EA48417423E0E948807A10B94FF0FF30F8
:101CA000F3E724B1E548407C08B10020EDE714B12A
:101CB0000120009001E000200090E04A1268D17BF2
:101CC000DE4A526810786B460122FFF764FE10B1BD
:101CD0004FF0FF30D9E79DF80010D848417400203C
:101CE000D3E738B500241FE0D4480068C07AA0428A
:101CF00004D0D2480068407DA04200D112E0CF4914
:101D0000496808786B4601222146FFF78FFD10B124
:101D10004FF0FF3038BD9DF800202146C8A00BF0E1
:101D2000BBFC00BF601CC4B2C44840680079A0423C
:101D3000DADC0020EEE770B504460D46BF480068C7
:101D4000C07AA04204D0BD480068407DA04202D1C4
:101D50004FF0FF3070BDB94840680079A04202DC06
:101D60004FF0FF30F6E7B549496808782B46012265
:101D70002146FFF75BFDEDE738B50446AF4890F824
:101D80002300A04201D1002038BD14B130200090C2
:101D900001E000200090A948807C20B19DF800005F
:101DA00040F002000090A54890F8220020B19DF874
:101DB000000040F080000090A04A1268117D9F4A08
:101DC000526810786B460122FFF7E5FD10B14FF025
:101DD000FF30D9E7994880F823400020D4E738B590
:101DE000044604F0700010B10120009005E014B129
:101DF0000020009001E040200090904A1268917C01
:101E00008E4A526810786B460122FFF7C4FD20B15C
:101E100000218A488172481E38BD9DF8000020F0DC
:101E20004001864801730020009004F0400020B972
:101E30009DF8000040F00400009004F0200020B95C
:101E40009DF8000040F00200009004F0100020B95E
:101E50009DF8000040F00100009004F0080020B957
:101E60009DF8000040F038000090744A1268D17C60
:101E7000724A526810786B460122FFF78CFD20B140
:101E800000216E488172481EC6E724B1082C02D09A
:101E90000020FFF771FF694884720021017532202C
:101EA0000AF02FFA0020B7E738B504466348807C73
:101EB000A04201D1002038BD002C46D05F4A1268F4
:101EC00011795E4A526810786B460122FFF7AEFC2A
:101ED00010B14FF0FF30EEE79DF8000020F0200039
:101EE0000090564A12681179544A526810786B462D
:101EF0000122FFF750FD10B14FF0FF30DBE7032068
:101F00000AF0FFF9022000904C4890F8220020B11E
:101F10009DF8000040F080000090484890F82300B1
:101F200020B19DF8000040F030000090434A126854
:101F3000117D424A526810786B460122FFF72BFD53
:101F4000002851D04FF0FF30B5E73C4A12681179B4
:101F50003A4A526810786B460122FFF767FC10B1CD
:101F60004FF0FF30A7E73548807A00F0010028B134
:101F70009DF8000040F02000009004E09DF8000073
:101F800020F0200000902D4A126811792B4A5268E7
:101F900010786B460122FFF7FEFC10B14FF0FF30C6
:101FA00089E703200AF0ADF9244890F8220010B127
:101FB0008020009001E000200090204890F823004D
:101FC00020B19DF8000040F0300000901B4A1268DC
:101FD000117D1A4A526810786B460122FFF7DBFC2C
:101FE00010B14FF0FF3066E714488474002062E7B8
:101FF00008B51248807A10B94FF0FF3008BD0020B4
:1020000000900E4A1268D17B0C4A526810786B46D9
:102010000122FFF7C0FC10B14FF0FF30EEE7074A96
:1020200012685179054A526810786B460122FFF711
:10203000B2FC68B14FF0FF30E0E70000480100203B
:10204000252335783A20252335780D0A0000000035
:10205000F84A12681179F74A526810786B460122E3
:10206000FFF799FC10B14FF0FF30C7E7F14890F847
:102070002400002853D00C200090EE4A12681179F9
:10208000EC4A526810786B460122FFF784FC10B1CD
:102090004FF0FF30B2E732200AF033F9C020009051
:1020A000E448807A00F0010020B19DF8000040F083
:1020B00020000090DF4A12681179DE4A52681078D9
:1020C0006B460122FFF767FC10B14FF0FF3095E738
:1020D000D848407C10B10220009001E00020009020
:1020E000D44A1268D17BD34A526810786B460122D9
:1020F000FFF751FC10B14FF0FF307FE70020009058
:10210000CC4A12685179CB4A526810786B4601224A
:10211000FFF741FC002855D04FF0FF306EE7042058
:102120000090C44A12681179C24A526810786B460E
:102130000122FFF730FC10B14FF0FF305EE7BD48E1
:10214000807C20B9BB48807A00F0010010B94020A3
:10215000009001E060200090B64A12681179B54AFB
:10216000526810786B460122FFF715FC10B14FF052
:10217000FF3043E732200AF0C4F8AE48407C10B18B
:102180000120009001E000200090AA4A1268D17B53
:10219000A84A526810786B460122FFF7FCFB10B189
:1021A0004FF0FF302AE7A34A12685179A14A5268DA
:1021B0001078A04B10330122FFF7EDFB10B14FF068
:1021C000FF301BE7002019E770B50446002624F015
:1021D0000104984890F8240008B1002070BD95488B
:1021E000807A10B94FF0FF30F8E79248057C807A8A
:1021F0002040904908740846007CA04202D04FF06D
:10220000FF3600E0002614B98A48007D18B101208D
:10221000FFF722FD02E00020FFF71EFD3CB1FFF7B3
:10222000E7FE20B1834805744FF0FF30D6E7304613
:10223000D4E738B504467F48807A10B94FF0FF30B4
:1022400038BDBC2C02DB0120009015E0622C02DBC3
:102250000220009010E02A2C02DB032000900BE00B
:10226000142C02DB0420009006E00A2C02DB05207F
:10227000009001E0062000906E48C07A9DF80010A2
:10228000884201D10020DBE76A4A12689178694AE6
:10229000526810786B460122FFF77DFB10B14FF0BA
:1022A000FF30CDE79DF800106248C1720020C7E7FB
:1022B00038B50446282C02DD4FF0FF3038BDDCB9BC
:1022C0000020FFF759FD00208DF8000007208DF851
:1022D0000100584A1268917C564A526810786B4641
:1022E0000222FFF758FB10B14FF0FF30E6E7002164
:1022F000504801750020E1E70120FFF73DFD202057
:102300008DF80000012C06D100208DF80100052079
:10231000FFF78FFF17E0052C06DC01208DF8010088
:102320000520FFF786FF0EE0142C06DC02208DF856
:1023300001000A20FFF77DFF05E003208DF8010072
:102340001420FFF776FF9DF80100072101EB8010B4
:10235000C0B28DF80100374A1268917C354A526844
:1023600010786B460222FFF716FB10B14FF0FF30DA
:10237000A4E708212F488172002101730121017512
:102380000020FFF721FF002098E738B504462948D0
:10239000807A10B94FF0FF3038BD264890F82400FD
:1023A00010B14FF0FF30F7E72248007D50B134B153
:1023B000282C04DCE0B2FFF77BFF0020ECE70020D4
:1023C000FFF776FF042C01DA042404E0B4F57A7FE9
:1023D00001DD4FF47A744FF47A7090FBF4F0401EF4
:1023E000C0B20090134A12685178124A52681078AD
:1023F0006B460122FFF7CFFA10B14FF0FF30CBE769
:102400009DF80000401C4FF47A7191FBF0F081B20E
:102410000848C1810146C9894810FFF70AFF00201A
:10242000BAE738B504460348807A28B94FF0FF3040
:1024300038BD000048010020022C06D0042C07D033
:10244000082C08D0102C0CD108E0002000900BE0E4
:102450000820009008E01020009005E0182000906F
:1024600002E04FF0FF30E3E700BFF948407A9DF803
:102470000010B0EBE10F01D10020D9E7F44A126857
:10248000D179F34A526810786B460122FFF783FA3C
:1024900010B14FF0FF30CBE79DF80000C110EC48C1
:1024A00041720020C4E738B50446E948807A10B983
:1024B0004FF0FF3038BDFA2C09D0B4F5FA7F09D0BF
:1024C000B4F57A7F09D0B4F5FA6F0CD108E000209A
:1024D00000900BE00820009008E01020009005E03C
:1024E0001820009002E04FF0FF30E3E700BFD8482B
:1024F000007A9DF80010B0EBE10F01D10020D9E780
:10250000D34A12689179D24A526810786B460122F8
:10251000FFF741FA10B14FF0FF30CBE79DF8000014
:10252000C010CB4908720020C4E71CB580208DF88C
:102530000000C74A1268917CC54A526810786B4601
:102540000122FFF728FA10B14FF0FF301CBD6420C4
:1025500009F0D7FE00208DF80000BD4A1268917C7A
:10256000BB4A526810786B460122FFF714FA10B18B
:102570004FF0FF30EAE7B64A1268917DB44A5268DC
:1025800010786B460622FFF751F910B14FF0FF307B
:10259000DCE79DF80500C007400F9DF8031001F02F
:1025A000010140EA41009DF8011001F0010140EAFB
:1025B000010494B1012C03D10121A548C17431E07B
:1025C000022C03D10021A248C1742BE02146A1A016
:1025D0000BF062F84FF0FF30B8E79D4A1268D178EF
:1025E0009B4A526810786B460122FFF71FF910B121
:1025F0004FF0FF30AAE79DF8000000F00F042CB95F
:102600009E480BF049F84FF0FF309FE7042C06D1AD
:102610009BA00BF041F801218D48C17402E000211C
:102620008B48C174FF218A488172FF208849087253
:10263000FF2187484172C1724FF6FF71C181FF21AE
:10264000017481740121017380F82210002180F847
:1026500023104175017516300160416081601638A4
:1026600080F8241080F82510C1844FF4FA60FFF739
:102670001AFF10B14FF0FF3068E70220FFF7D1FEDC
:1026800010B14FF0FF3061E72A20FFF7D2FD10B103
:102690004FF0FF305AE73220FFF777FE10B14FF0CE
:1026A000FF3053E70020FFF78FFD10B14FF0FF30F0
:1026B0004CE70020FFF7F8FB10B14FF0FF3045E783
:1026C0000020FFF78CFB002040E770477CB50446F4
:1026D0000D465F48807A00F0700010B94FF0FF306F
:1026E0007CBD5B4A1268117B594A526810786B4670
:1026F0000622FFF79BF810B14FF0FF30F0E79DF88E
:1027000001009DF8001040EA012000B220809DF8F1
:1027100003009DF8021040EA012000B260809DF89D
:1027200005009DF8041040EA012000B2A08015B118
:102730002846FFF7CAFF0020D2E77CB504460D46C5
:102740004348807A00F0080010B94FF0FF307CBD9C
:102750003F4A1268517B3E4A526810786B46062207
:10276000FFF764F810B14FF0FF30F0E79DF801007B
:102770009DF8001040EA012000B220809DF803007F
:102780009DF8021040EA012000B260809DF805002B
:102790009DF8041040EA012000B2A08015B128463F
:1027A000FFF793FF0020D2E72DE9FE4F05460C46C8
:1027B0002748807A18B94FF0FF30BDE8FE8F244AD1
:1027C0001268917B224A5268107802AB0222FFF70E
:1027D0002DF810B14FF0FF30EFE79DF809009DF89C
:1027E000081040EA012006B214B12046FFF76DFF41
:1027F00017494968C8880AF0A3FC1549019049683F
:10280000B1F908000AF093FC834630460AF08FFCC9
:10281000594600900AF08DFA824601990AF0C1FAF1
:1028200081461F490AF033FA80464FF08F410AF083
:1028300086FA07460AF09AFC28600020BDE710B52A
:1028400088B004461CB94FF0FF3008B010BD29E035
:1028500048010020556E737570706F727465642046
:10286000736F6674776172652070726F64756374DC
:10287000207265762025642E0A00000038A903081E
:1028800048616C662073656E7369746976697479E2
:10289000207061727420666F756E642E0A000000ED
:1028A00000000C42206830B9606820B9A06810B9F7
:1028B000002008B010BDFA494968087806AB032229
:1028C0001146FEF7B3FF10B14FF0FF30F1E79DF86E
:1028D0001800082101EB201000F00F00ADF80000F7
:1028E0009DF8190001EB201000F00F00ADF8020078
:1028F0009DF81A0001EB201000F00F00ADF8040065
:1029000020684100BDF90000403091FBF0F000B2BA
:10291000ADF8100060684100BDF90200403091FB45
:10292000F0F000B2ADF81200A0684100BDF904005B
:10293000403091FBF0F000B2ADF81400D84949687E
:10294000087806AB06221146FEF770FF10B14FF073
:10295000FF30AEE79DF819009DF8181040EA0120FD
:1029600000B2ADF808009DF81B009DF81A1040EA6F
:10297000012000B2ADF80A009DF81D009DF81C1062
:1029800040EA012000B2ADF80C00BDF81000BDF81F
:102990000810084400B2ADF81000BDF81200BDF8F0
:1029A0000A10084400B2ADF81200BDF81400BDF8DA
:1029B0000C10084400B2ADF81400BDF81000000A75
:1029C0008DF81800BDF81000C0B28DF81900BDF8E0
:1029D0001200000A8DF81A00BDF81200C0B28DF87E
:1029E0001B00BDF81400000A8DF81C00BDF814008F
:1029F000C0B28DF81D00AA494968087806AB0622C6
:102A00001146FEF7C8FF10B14FF0FF3051E700202C
:102A10004FE70146A248007A30B1012807D00228CA
:102A200009D003280FD10AE0FA2008800EE04FF405
:102A3000FA7008800AE04FF47A70088006E04FF4DC
:102A4000FA60088002E00020088000BF00BF00207C
:102A5000704701469248407A30B1012807D00228D9
:102A600008D003280CD108E0022008700BE00420F5
:102A7000087008E00820087005E01020087002E0E7
:102A80004FF0FF30704700BF8548C07C18B1087810
:102A90004006000E08700020F4E701468048C07A26
:102AA000082817D2DFE800F01704070A0D101318E2
:102AB000BC20088013E06220088010E02A200880F3
:102AC0000DE0142008800AE00A20088007E00520B5
:102AD000088004E000BF00BF0020088000BF00BFE6
:102AE0000020704701466E4890F8240010B14FF066
:102AF000FF3070476A48C08908800020F9E7014626
:102B000000200880401E704701464FF0FF3070479C
:102B100001466348007A30B1012807D0022808D066
:102B200003280CD108E05F4808600BE05E480860AD
:102B300008E05E48086005E05D48086002E04FF08C
:102B4000FF30704700BF0020FBE701465448407A41
:102B500030B1012808D002280AD0032810D10BE098
:102B60004FF4804008800EE041F69C7008800AE037
:102B70004FF48050088006E04FF40060088002E0C7
:102B80004FF0FF30704700BF4548C07C10B1088847
:102B9000401008800020F5E701464148007C08709D
:102BA0000020704701463E48807A10B1012008702D
:102BB00001E0002008700020704738B5044638480E
:102BC000807A10B94FF0FF3038BD354A1268117C59
:102BD000334A526810786B460222FEF727FE10B186
:102BE0004FF0FF30F0E79DF801009DF8001040EA3B
:102BF000012000B220800020E6E72DE9FE4F0746C5
:102C0000884692461D46DDF830B000260024244850
:102C100090F8240010B1601EBDE8FE8F00202870DF
:102C20001F48807A10B94FF0FF30F5E71C48007C50
:102C300010B94FF0FF30EFE71948007C00F040007A
:102C400008B1B01CC6B21648007C00F0200008B1E4
:102C5000B01CC6B21248007C00F0100008B1B01CD5
:102C6000C6B20F48007C00F0080008B1B01DC6B223
:102C70000B4A1268917A0A4A526810786B4602220F
:102C8000FEF7D4FD10B14FF0FF30C5E79DF801000D
:102C90009DF8001040EA0129B1450BDA0020BBE79E
:102CA0004801002000000343000083423333034205
:102CB00033338341F74840684088B9EB600F17DD34
:102CC000F44A1268517CF34A526810786B4601222C
:102CD000FEF7ACFD10B14FF0FF309DE79DF800000E
:102CE00000F0100020B1FFF783F96FF0010093E7C7
:102CF0005046FFF7EAFCE74A1268D17AE54A526883
:102D000010786B463246FEF791FD10B14FF0FF3060
:102D100082E799FBF6F0401E8BF800000020287037
:102D2000B4422AD0DB48007C00F0080028B3601CC5
:102D30001DF800001DF8041040EA012000B2A8F8B8
:102D40000000E01C1DF80010A01C1DF8000041EA66
:102D5000002000B2A8F80200601D1DF80010201D20
:102D60001DF8000041EA002000B2A8F8040028780D
:102D700040F008002870A01D84B2B44213D0C548AA
:102D8000007C00F0400070B1601C1DF800001DF8D0
:102D9000041040EA012000B23880287840F040005A
:102DA0002870A01C84B2B44213D0BA48007C00F052
:102DB000200070B1601C1DF800001DF8041040EAEE
:102DC000012000B27880287840F020002870A01CF4
:102DD00084B2B44213D0AF48007C00F0100070B150
:102DE000601C1DF800001DF8041040EA012000B22C
:102DF000B880287840F010002870A01C84B2002011
:102E00000AE7F8B504460F461646A24890F8240093
:102E100010B94FF0FF30F8BD9E48807A10B94FF0DE
:102E2000FF30F8E79B4A1268917A9A4A5268107804
:102E30006B460222FEF7FAFC10B14FF0FF30EAE7D2
:102E40009DF801009DF8001040EA0125A54203DA33
:102E500000203070401EDEE78E4840684088B5EBA9
:102E6000600F0DDD8B4A1268517C8A4A52681078D7
:102E70006B460122FEF7DAFC10B14FF0FF30CAE7D3
:102E8000E2B2844B1B68D97A824B5B6818783B4668
:102E9000FEF7CCFC10B14FF0FF30BCE795FBF4F02F
:102EA000401E30700020B6E701467A4880F82210B4
:102EB000002070477CB5054676494968087801AB23
:102EC00004220D21FEF7B2FC08B107207CBD9DF85D
:102ED0000700C0F301109DF8041001F0E00140EA82
:102EE000E1008DF800009DF80700C0F381009DF817
:102EF000051001F0E00140EAE1008DF801009DF8C5
:102F0000070000F003009DF8061001F0E00140EA20
:102F1000E1008DF8020000241CE01DF8040018B93F
:102F2000002045F8240013E05B4845F8240006E043
:102F300055F82400594909F002FF45F824001DF80E
:102F40000400401EC0B20DF804000028F0D100BFFC
:102F5000601CC4B2032CE0DB0020B7E72DE9FE4F74
:102F600006460F4600256846FFF7A4FF002442E00E
:102F700056F8240057F82410A0EB010ABAF1000F0C
:102F800001DB514601E0CAF1000108460AF0CFF822
:102F900083464FF08F4109F004FF80465DF824001E
:102FA00000210AF06FF916D05DF82410404609F0B0
:102FB000F8FE82464FF07E5109F0BBFE814629F0B3
:102FC000004A3748416A50460AF066F912D2012099
:102FD000A04005430EE03248C16940460AF052F96C
:102FE00005D32F48016A40460AF056F902D2012063
:102FF000A0400543641C032CBADB2846BDE8FE8FC5
:103000002DE9FC5F06460F460025224949680878ED
:1030100001AB03220D21FEF709FC10B10720BDE82A
:10302000FC9F9DF8040000F01F008DF804009DF83F
:10303000050000F01F008DF805009DF8060000F067
:103040001F008DF80600002462E056F8240057F8AF
:103050002410A0EB010BBBF1000F01DB594601E08E
:10306000CBF1000108460AF062F84FF08F41009062
:1030700009F097FE814601A8005DC0B308490868C1
:103080000AF05EF883465946064809F08AFE8046F3
:103090000FE00000480100207B14AE3E1D5A843F23
:1030A000F0ED000800B04C45FE49404609F047FEEF
:1030B000804601A8005D401EC0B201A90855002845
:1030C000F2D14146484609F06CFE83464FF07E51EE
:1030D00009F02FFE82462AF0004BF34881695846DA
:1030E0000AF0DAF813D20120A04005430FE0FFE711
:1030F000ED48016948460AF0C5F805D3EA48416938
:1031000048460AF0C9F802D20120A0400543641CD9
:10311000032C9ADB284682E72DE9F04F87B005465D
:103120000C46914601208DF8100000208DF811000A
:10313000DE4A1268917CDD4A5268107804AB0222A4
:10314000FEF729FC20B14FF0FF3007B0BDE8F08F4B
:10315000C82009F0D6F800208DF81000D34A126874
:10316000D17BD24A5268107804AB0122FEF713FCDF
:1031700010B14FF0FF30E8E7CC4A12685179CB4AE2
:103180005268107804AB0122FEF705FC10B14FF035
:10319000FF30DAE7C54A1268917CC44A5268107859
:1031A00004AB0122FEF7F7FB10B14FF0FF30CCE784
:1031B000BE4A1268D17DBD4A5268107804AB012224
:1031C000FEF7E9FB10B14FF0FF30BEE7B74A1268D7
:1031D0001179B64A5268107804AB0122FEF7DBFB86
:1031E00010B14FF0FF30B0E70C208DF81000AF4A5F
:1031F00012681179AD4A5268107804AB0122FEF7CB
:10320000CAFB10B14FF0FF309FE70F2009F079F8AB
:10321000A648806A407A8DF81000A44A1268917816
:10322000A24A5268107804AB0122FEF7B4FB10B139
:103230004FF0FF3089E79D48806A007A8DF81000D2
:103240009A4A12685178994A5268107804AB012260
:10325000FEF7A1FB10B14FF0FF3076E7B9F1000F98
:1032600007D09248806A807A40F0E0008DF8100024
:1032700004E08E48806A807A8DF810008B4A1268CC
:1032800091798A4A5268107804AB0122FEF783FBD9
:1032900010B14FF0FF3058E7B9F1000F07D0834865
:1032A000806AC07A40F0E0008DF8100003E07E48AC
:1032B000C07A8DF810007D4A1268D1797B4A526835
:1032C000107804AB0122FEF766FB10B14FF0FF301F
:1032D0003BE7B9F1000F02D0C82009F012F84020F6
:1032E0008DF81000714A12681179704A526810788E
:1032F00004AB0122FEF74FFB10B14FF0FF3024E783
:1033000078208DF81000694A12685179674A52682E
:10331000107804AB0122FEF73EFB10B14FF0FF30F6
:1033200013E76149888908F0ECFF00208DF8100050
:103330005E4A126851795D4A5268107804AB0122E6
:10334000FEF729FB10B14FF0FF30FEE6574A126836
:10335000917A564A5268107804AB0222FEF766FA58
:1033600010B14FF0FF30F0E69DF811009DF81010FD
:1033700040EA012B0C209BFBF0F0C6B20020A860B5
:1033800068602860A06060602060824665E0474A0F
:103390001268D17A454A5268107804AB0C22FEF7C5
:1033A00045FA10B14FF0FF30CFE69DF811009DF8BF
:1033B000101040EA012000B2ADF808009DF813009B
:1033C0009DF8121040EA012000B2ADF80A009DF805
:1033D00015009DF8141040EA012000B2ADF80C0071
:1033E000BDF90810206808442060BDF90A10606823
:1033F00008446060BDF90C10A0680844A0609DF806
:1034000017009DF8161040EA012000B2ADF8000048
:103410009DF819009DF8181040EA012000B2ADF89F
:1034200002009DF81B009DF81A1040EA012000B22E
:10343000ADF80400BDF90010286808442860BDF903
:103440000210686808446860BDF90410A868084460
:10345000A8600AF1010000F0FF0AB24597DB1248AC
:10346000D0F800C02868C117090441EA10410704D8
:1034700062460023384609F0A3FB32460023CDE91B
:10348000020109F09DFB28600748D0F800C0686879
:10349000C117090441EA1041070462460023384677
:1034A00006E0000054E3853FF0ED000848010020ED
:1034B00009F086FB32460023CDE9020109F080FBCA
:1034C0006860FE48D0F800C0A868C117090441EA46
:1034D0001041070462460023384609F071FB32466A
:1034E0000023CDE9020109F06BFBA860F348D0F896
:1034F00004C02168C817000440EA11480F0462465E
:1035000000233846414609F05BFB32460023CDE9F3
:10351000020109F055FB2060E848D0F804C060685B
:10352000C117090441EA10410704624600233846E6
:1035300009F046FB32460023CDE9020109F040FBC9
:103540006060DE48D0F804C0A068C117090441EAF1
:103550001041070462460023384609F031FB324629
:103560000023CDE9020109F02BFBA060A068002830
:1035700004DDA068A0F58030A06003E0A06800F53D
:103580008030A0600020E0E538B50446CC4890F8D3
:103590002400A04201D1002038BD24B3C84890F8CF
:1035A000250010B94FF0FF30F6E70020FEF754FB7E
:1035B0000020FEF779FCC249C88CFEF7E6FE002029
:1035C0000090BF49496808786B4601222321FEF725
:1035D000E2F90121BA4880F824100120FEF73CFBF3
:1035E000FEF706FD13E00020FEF736FBB448007C32
:1035F0000090B349496808786B4601222321FEF701
:10360000CAF90021AE4880F82410FEF7F1FC002032
:10361000C2E72DE9F04F8DB083460F4602200C9093
:10362000A74890F8240020B10020FFF7ADFF012645
:1036300000E0002603A8FFF7ECF905A8FFF709FA58
:1036400001A8FFF72AFA02A8FFF74CFA9C4890F865
:103650000AA004A8FFF7A0FA002407E000223946D8
:103660005846FFF759FD00B902E0641C022CF5DB57
:1036700000BF022C01D1002528E0002407E0012230
:1036800006A909A8FFF748FD00B902E0641C022C56
:10369000F5DB00BF022C01D1002517E006A9384652
:1036A000FFF75CFC00F0FF0809A95846FFF7A8FCEB
:1036B00000F0FF090025B9F1000F01D145F0010527
:1036C000B8F1000F01D145F0020500BFFF207C4991
:1036D0000872FF217A484172C1724FF6FF71C181B1
:1036E000FF218172017401210173BDF80C00FEF706
:1036F000DAFE9DF81400FEF794FEBDF80400FEF714
:1037000098FDBDF80800FEF740FE5046FEF767FB47
:103710009DF81000FEF758FD16B10120FFF734FFA9
:1037200028460DB0BDE8F08FF8B504460D461646A4
:1037300016B94FF0FF30F8BD6148807A10B94FF0EC
:10374000FF30F8E720128DF80000E0B28DF801009C
:103750009DF8010028445A4949684989884202DD98
:103760004FF0FF30E7E7564A1268117E544A52681C
:1037700010786B460222FEF70EF910B14FF0FF30C1
:10378000D9E7EAB24E4B1B68597D4D4B5B68187800
:103790003346FEF700F910B14FF0FF30CBE70020C1
:1037A000C9E7F8B504460D46164616B94FF0FF3086
:1037B000F8BD4348807A10B94FF0FF30F8E7201287
:1037C0008DF80000E0B28DF801009DF8010028445A
:1037D0003B4949684989884202DD4FF0FF30E7E7FD
:1037E000374A1268117E364A526810786B460222B8
:1037F000FEF7D1F810B14FF0FF30D9E7EAB2304B05
:103800001B68597D2E4B5B6818783346FEF70EF81F
:1038100010B14FF0FF30CBE70020C9E72DE9F043AE
:1038200085B005460E4690469946254890F82500F5
:1038300020B14FF0FF3005B0BDE8F08316B94FF06E
:10384000FF30F8E7002423E0281B102801DD1020BA
:1038500000E0281B87B2321939462046FFF764FF83
:1038600010B14FF0FF30E6E701AA39462046FFF7D6
:1038700098FF10B14FF0FF30DDE730193A4601A94B
:1038800009F0EFF910B16FF00100D4E7E01984B24C
:10389000AC42D9DB4FEA28208DF8000008F0FF0089
:1038A0008DF80100064A1268917E054A5268107828
:1038B0006B460222FEF76FF838B103E0F0ED000826
:1038C000480100204FF0FF30B5E70121FE4880F8A5
:1038D0002510A0F826900020ADE70146FA4890F8A0
:1038E00024000870002070474FF0FF3070470246F8
:1038F0004FF0FF30704701464FF0FF307047F8B58A
:1039000005460F461446002C70D0B5F5FF5F01DD6B
:10391000FF2605E0202D01DA012601E0C5F3471658
:1039200007B90127282C02DD4FF0FF30F8BDE6482B
:10393000407D28BBE44890F8240038B10020FFF710
:1039400023FE0121E04880F8201003E00021DE483A
:1039500080F82010DC481630FFF75BF8DA481830A2
:10396000FFF777F8D8481A30FFF797F8D6481C3099
:10397000FFF7B8F8D448817A81771F30FFF70CF948
:103980000020FEF769F90020FEF792FC00208DF878
:103990000000CD4A12689178CB4A526810786B4685
:1039A0000122FDF7F8FF10B14FF0FF30BEE74020D5
:1039B0008DF80000C44A1268D17BC34A526810785F
:1039C0006B460122FDF7E7FF00B165E08DF800606E
:1039D0008DF80170BC4A1268117ABB4A526810789F
:1039E0006B460222FDF7D7FF08B155E047E00520FE
:1039F00008F087FCB448407A072101EBC000C0B250
:103A00008DF80000B04A1268D179AF4A5268107838
:103A10006B460122FDF7BFFF00B13DE020208DF88D
:103A20000000012C03D100208DF801000EE0052CD0
:103A300003DC01208DF8010008E0142C03DC0220D7
:103A40008DF8010002E003208DF801009DF80100CF
:103A5000072101EB8010C0B28DF801009A4A12686C
:103A6000917C994A526810786B460222FDF793FFC9
:103A700000B111E0012194484175002056E7924AB7
:103A80001632002103E0505C00B105E0491C0C290E
:103A9000F9D34FF0FF3049E7FF208B490872FF212F
:103AA00089484172C1724FF6FF71C181FF21817255
:103AB0000174012101730146887FFEF790F9824964
:103AC000C88AFEF7F0FC8049087EFEF7AAFC7E4912
:103AD000488BFEF7AEFB7C49888BFEF756FC7A4993
:103AE000C87FFEF771FB784890F8200010B10120E4
:103AF000FFF74AFD002174484175002016E770B5B4
:103B000088B002A905A8FFF784FD0446032C3ED126
:103B100001A8FEF7FDFF059809F009FB064601998B
:103B200009F00DF9054609F021FB0590069809F00A
:103B3000FEFA0646019909F002F9054609F016FB5E
:103B40000690079809F0F3FA0646019909F0F7F88C
:103B5000054609F00BFB079005A800F054FA6846EB
:103B6000FEF7F3FFBDF80010029848430290BDF83D
:103B70000010039848430390BDF800100498484390
:103B8000049002A800F0D2FA002008B070BD012015
:103B9000FBE7014691F90020002A01DD00201EE02C
:103BA00091F90020002A01DA042018E091F901209F
:103BB000002A01DD012012E091F90120002A01DA3A
:103BC00005200CE091F90220002A01DD022006E028
:103BD00091F90220002A01DA062000E00720704750
:103BE00010B504462046FFF7D4FF0346E01CFFF75C
:103BF000D0FF43EAC00083B2A01DFFF7CAFF43EA2B
:103C0000801083B2184610BD70B50024FDF701FF87
:103C1000FEF78BFC002840D17820FEF7E0F8C4B214
:103C20000CB1012070BD7820FEF7CEFAC4B20CB101
:103C30000220F7E76420FEF7A8FBC4B20CB1032012
:103C4000F0E700F045F9C4B20CB10420EAE71F48E0
:103C5000FFF7C6FF054600F045F9C4B20CB10520D8
:103C6000E0E740F2731000F07EFDC4B20CB1062014
:103C7000D8E7642000F0F0FAC4B20CB10720D1E715
:103C8000FFF73DFF04460CB10820CBE70120FFF70A
:103C90007BFCC4B21CB10920C4E70A20C2E70020A3
:103CA000C0E72DE9F04F99B004460D4616464FF097
:103CB0007E574FF000084FF000094FF0000A12A89D
:103CC00013A918AB0EAA03E04801002074010020DC
:103CD000CDE9001014A916A800F0A4FE18B1012027
:103CE00019B0BDE8F08FBDF84C0000F480700028DA
:103CF0007ED00E9809F01BFA83464FF09D4109F0E3
:103D000050F807460F9809F012FA83464FF09D418C
:103D100009F047F88046109809F009FA83464FF0F9
:103D20009D4109F03EF88146119809F000FA83465A
:103D30004FF09D4109F035F8824639464FF08040FA
:103D400008F0FDFF4946059008F0F9FF414607904D
:103D50004FF0404008F0F3FF5146059008F0EFFFA8
:103D60000690079908F093FF834609F02CFACDE9F5
:103D700008010AF04FFC4FF06632544BCDE90A01BE
:103D800009F0F4F8CDE90C0109F060FA2060494629
:103D90004FF0804008F0D3FF4946029008F0CFFF73
:103DA000414604904FF0404008F0C9FF4146029060
:103DB00008F0C5FF0390049908F0BBFF83464FF05D
:103DC0007E5108F064FF059009F0FDF9CDE9080186
:103DD00039464FF0804008F0B2FF4146039008F0AA
:103DE000AEFF494604904FF0804008F0A8FF00E085
:103DF00068E05146039008F0A2FF8346049908F05A
:103E000046FF059009F0DFF9CDE90601DDE9082359
:103E10000AF048FE4FF066322C4BCDE90A0109F05A
:103E2000A5F8CDE90C0109F011FA28605146504679
:103E300008F085FF49460490484608F080FF414657
:103E40000390404608F07BFF39460190384608F061
:103E500076FF0090019908F01AFF0290039908F08C
:103E600068FF8346049908F064FF059009F0ABF9F8
:103E7000CDE908015146384608F061FF49460490F3
:103E8000404608F05CFF0390049908F000FF4FF0F3
:103E90008041059008F053FF834609F094F9CDE97D
:103EA0000601DDE908230AF0FDFD4FF06632074BFD
:103EB000CDE90A0109F05AF8CDE90C0109F0C6F97B
:103EC000306001E002200BE7002009E766A64C40C5
:103ED00010B5C8234FF48062F74940F6F630FFF77B
:103EE0009DFC10BD10B586B00446F4A00068039098
:103EF000F3A000680290F3A000680190F2A00068AF
:103F0000009004F0030003A9085C8DF8140003A8D6
:103F1000C4F3C101405C8DF8150003A8C4F38111FE
:103F2000405C8DF8160004F0030002A9085C8DF8CF
:103F3000100002A8C4F3C101405C8DF8110002A872
:103F4000C4F38111405C8DF8120005AA032140F2F0
:103F50002640FFF7E9FB18B14FF0FF3006B010BD67
:103F600004AA032140F22A40FFF7DEFB10B14FF014
:103F7000FF30F3E7019805900098049004F00400E6
:103F800058B19DF8140040F001008DF814009DF820
:103F9000100040F001008DF8100004F0200058B12E
:103FA0009DF8150040F001008DF815009DF81100F6
:103FB00040F001008DF8110004F4807058B19DF8B4
:103FC000160040F001008DF816009DF8120040F038
:103FD00001008DF8120005AA03214FF48860FFF755
:103FE000A3FB10B14FF0FF30B8E704AA032140F261
:103FF0003140FFF799FB10B14FF0FF30AEE7B34807
:1040000004810020AAE71FB50446B048007A00F0FA
:10401000030054F820000190AC48007A00F004003E
:1040200010B1019840420190A848007AC0F3C10045
:1040300054F820000290A548007A00F0200010B14A
:10404000029840420290A148007AC0F3811054F8CF
:10405000200003909D48008900F4807010B10398FF
:10406000404203909A49019880FB0101800F40EA89
:10407000810001909649029880FB0110820042EA7B
:10408000917002909249039880FB0110820042EAED
:10409000917003900198000E8DF800000198000CBB
:1040A0008DF801000198000A8DF802000198C0B255
:1040B0008DF803006A4604214FF47470FFF734FB57
:1040C00018B14FF0FF3004B010BD0298000E8DF80B
:1040D00000000298000C8DF801000298000A8DF88B
:1040E00002000298C0B28DF803006A4604214FF422
:1040F0007570FFF719FB10B14FF0FF30E3E703983D
:10410000000E8DF800000398000C8DF80100039854
:10411000000A8DF802000398C0B28DF803006A46C9
:1041200004214FF47670FFF7FFFACCE770B588B042
:10413000064601A8FEF709FDBDF804000021C903E9
:1041400041EA5045C4036148007A00F0030056F884
:10415000200005905D48007A00F0040010B1059839
:10416000404205905948007AC0F3C10056F820003B
:1041700006905648007A00F0200010B106984042A0
:1041800006905248007AC0F3811056F8200007903C
:104190004E48008900F4807010B1079840420790A3
:1041A0000598C117A0FB042301FB043100FB051097
:1041B000810041EA927005900698C117A0FB042384
:1041C00001FB043100FB0510810041EA927006906A
:1041D0000798C117A0FB042301FB043100FB051065
:1041E000810041EA927007900598000E8DF8080052
:1041F0000598000C8DF809000598000A8DF80A0052
:104200000598C0B28DF80B000698000E8DF80C00D2
:104210000698000C8DF80D000698000A8DF80E0027
:104220000698C0B28DF80F000798000E8DF81000A8
:104230000798000C8DF811000798000A8DF81200FD
:104240000798C0B28DF8130002AA0C214FF4257014
:10425000FFF76AFA08B070BD30B585B004461DA2FC
:1042600007CA02AB07C3C82C03DD4FF0FF3005B00F
:1042700030BDC82090FBF4F0401E85B2280A8DF8AE
:104280000000E8B28DF801006A46022140F21620D3
:10429000FFF74AFA10B14FF0FF30E8E702AA0C210D
:1042A00040F6C120FFF740FA10B14FF0FF30DEE7D3
:1042B000064884810020DAE718EE00084CCD6C0037
:1042C0000CC92C003656760026466600A005002054
:1042D00009E3CA02FEF2ABC4AAF1DFDFBBAFDFDF46
:1042E0000146FC4880890880002070472DE9FC4782
:1042F00006460F4606F0070010B1B7F5C86F03DD9C
:104300004FF0FF30BDE8FC87384608F019FF8146C2
:10431000F14908F046FD80466846FEF79AFB9DF895
:104320000000022806D0042816D0082826D010281D
:1043300048D135E04FF08D41404608F000FD814600
:1043400008F02DFF84B2E549404608F0F8FC8146AC
:1043500008F025FF85B238E04FF08C41404608F068
:10436000EEFC814608F01BFF84B2DD49404608F0B0
:10437000E6FC814608F013FF85B226E04FF08B4142
:10438000404608F0DCFC814608F009FF84B2D549BC
:10439000404608F0D4FC814608F001FF85B214E0E5
:1043A0004FF08A41404608F0CAFC814608F0F7FE0B
:1043B00084B2CD49404608F0C2FC814608F0EFFEC9
:1043C00085B202E04FF0FF309CE700BF20128DF86D
:1043D0000400E0B28DF8050028128DF80600E8B25E
:1043E0008DF8070006F00100A0B101AA02214FF4E8
:1043F000EA70FFF799F910B14FF0FF3082E70DF145
:10440000060202214FF49270FFF78EF910B14FF0BF
:10441000FF3077E706F00200A0B101AA02214FF4B5
:10442000EC70FFF781F910B14FF0FF306AE70DF142
:10443000060202214FF49470FFF776F910B14FF0A5
:10444000FF305FE706F00400A0B101AA02214FF49B
:10445000EE70FFF769F910B14FF0FF3052E70DF140
:10446000060202214FF49670FFF75EF910B14FF08B
:10447000FF3047E7002045E738B5044600200090AC
:1044800004F0010020B19DF8000040F030000090E1
:1044900004F0020020B19DF8000040F00C000090F4
:1044A00004F0040020B19DF8000040F003000090EB
:1044B0006A4601214FF4A470FFF736F938BD38B5CC
:1044C0000446012C01DA012402E0042C00DD04245E
:1044D000601EC0B200906A46012140F24F10FFF703
:1044E00023F938BD38B50446052094FBF0F085B2B9
:1044F00028128DF80000E8B28DF801006A4602210A
:104500004FF4EF70FFF710F938BD38B504460520B9
:1045100094FBF0F085B228128DF80000E8B28DF817
:1045200001006A4602214FF4ED70FFF7FDF838BD37
:10453000F8B505460E464FF47A7095FBF0F000FB97
:1045400006F4200E8DF80000200C8DF80100200AE2
:104550008DF80200E0B28DF803006A4604214FF4A2
:10456000AE70FFF7E1F8F8BD38B50446052094FBBE
:10457000F0F084B220128DF80000E0B28DF8010056
:104580006A4602214FF4AD70FFF7CEF838BD38B55A
:104590000446052094FBF0F084B220128DF8000050
:1045A000E0B28DF801006A4602214FF4AC70FFF7CB
:1045B000BBF838BD38B5044614B94FF0FF3038BDEC
:1045C0006A4604214FF45870FFF7EBF810B14FF032
:1045D000FF30F4E79DF8000000069DF8011040EA66
:1045E00001409DF8021040EA01209DF803100843A5
:1045F00020600020E3E738B50446200E8DF8000067
:10460000200C8DF80100200A8DF80200E0B28DF830
:1046100003006A4604214FF45870FFF785F838BD4F
:1046200038B5044614B94FF0FF3038BD6A4604214E
:104630004FF47170FFF7B5F810B14FF0FF30F4E7A9
:104640009DF8000000069DF8011040EA01409DF829
:10465000021040EA01209DF80310084300EB80009F
:10466000800020600020E0E738B504461420B4FB49
:10467000F0F4200E8DF80000200C8DF80100200AC7
:104680008DF80200E0B28DF803006A4604214FF471
:104690007170FFF749F838BD38B5044664B1202081
:1046A0008DF8000028208DF8010030208DF80200E0
:1046B00038208DF8030004E0A3220421684608F0A6
:1046C000B0FA6A46042140F69E20FFF72DF8FDF768
:1046D0008FFC38BDA0050020000048430000404684
:1046E0000000C045000040450000C04438B5044605
:1046F00064B1C0208DF80000C2208DF80100C420F4
:104700008DF80200C6208DF8030004E08B220421FE
:10471000684608F086FA6A46042140F69820FFF7BA
:1047200003F8FDF765FC38BD3EB504466CB1FDA14C
:10473000D1E900208968CDE9002002916A4609216B
:104740004FF49760FEF7F0FF3EBDF9A2D2E90010EA
:104750009268CDE9010200916A4609214FF4976001
:10476000FEF7E2FFF0E73EB5044602208DF80000B8
:10477000CA208DF80100E3208DF8020009208DF891
:1047800003006A4604216820FEF7CEFFA3208DF8BF
:10479000000004F0400048B1C0208DF80100C8209E
:1047A0008DF80200C2208DF8030006E0A3208DF8EA
:1047B00001008DF802008DF8030004F4C07048B1C8
:1047C000C4208DF80400CC208DF80500C6208DF89B
:1047D000060006E0A3208DF804008DF805008DF892
:1047E0000600A3208DF807008DF808008DF8090059
:1047F0006A460A2140F6A720FEF796FF04F0030060
:1048000018B120208DF8000002E0D8208DF80000BB
:104810006A46012140F6B620FEF786FF04F020002C
:1048200018B10120FFF780FF02E00020FFF77CFFB6
:1048300004F4C07008B304F4807060B1B2208DF845
:1048400000008B208DF80100B6208DF802009B201F
:104850008DF803000BE0B0208DF8000080208DF86B
:104860000100B4208DF8020090208DF803006A4604
:10487000042140F6A220FEF757FF04F0010020B308
:10488000F8208DF800006A4601214FF40B60FEF716
:104890004BFFFA210720FFF729FD0720FFF7ECFD6A
:1048A0000120FFF70CFE6420FFF71CFE4FF4FA70A6
:1048B000FFF72BFEC821A148FFF73AFE2820FFF79B
:1048C00053FE0A20FFF763FE08E0D8208DF80000B1
:1048D0006A4601214FF40B60FEF726FF04F0020048
:1048E00018B1D9208DF8000002E0D8208DF8000022
:1048F0006A46012140F23D70FEF716FF04F0040005
:1049000018B10120FFF7F2FE02E00020FFF7EEFEF3
:1049100004F0100018B10120FFF7BEFE02E00020F5
:10492000FFF7BAFE44F0080085494881FDF760FBB7
:1049300000208349887304F0400018B10846807B4A
:10494000801D887304F4C07020B17D48807B801D79
:104950007B49887304F0140020B17948807B1030C3
:104960007749887304F0030020B17548807B001DEF
:104970007349887300203EBD014671484089088014
:10498000002070472DE9F0410446E07800F0C006B1
:10499000E07800F03F05607800F0010098B1EF107A
:1049A0002846E91705EB5171C910A5EBC101491C57
:1049B00001F0FF086248006820B161484146026882
:1049C0003846904700BF607800F0080030B15C487E
:1049D000406818B1B0115A4A516888470020BDE8B4
:1049E000F08110B586B0044656A207CA03AB07C3D0
:1049F00057A207CA8DE80700012C09D0022C0ED15E
:104A000003AA0B2140F68220FEF78EFE06B010BDF1
:104A10006A460B2140F68220FEF786FEF6E74FF04D
:104A2000FF30F3E72DE9F04F8DB007468846154675
:104A30009946DDE9166B0024002030804049887BD0
:104A40005A4605A9FEF7DDF918B1601E0DB0BDE8A4
:104A5000F08F3B48807A00F01400002861D09DF868
:104A6000140000069DF8151040EA01409DF816104C
:104A700040EA01209DF81710084328609DF81800AF
:104A800000069DF8191040EA01409DF81A1040EA0E
:104A900001209DF81B10084368609DF81C0000066B
:104AA0009DF81D1040EA01409DF81E1040EA0120CB
:104AB0009DF81F100843A8609DF8200000069DF88F
:104AC000211040EA01409DF8221040EA01209DF8A3
:104AD00023100843E86004F11000C4B228680014F1
:104AE0000190686800140290A86800140390E868B8
:104AF0000014049001984043029901FB01000399BE
:104B000001FB0100049901FB010ABAF1706F02DB9D
:104B1000BAF1885F22DDFDF76BFA00203080401E7D
:104B200094E721E0B8AAB38DB4980D355D0000007C
:104B3000B8AAAAAAB088C3C5C700000009E3CA0280
:104B4000A0050020D8B1B9F38BA391B609B4D90060
:104B5000DAB1B9F38BA391B6DAB4DA00B6F9000092
:104B600040F48070308000BF3448807A00F040000C
:104B700020B305A9601C085C095D40EA012000B271
:104B8000A8F8000005A9E01C095C05AAA01C105C9F
:104B900041EA002000B2A8F8020005A9601D095CE6
:104BA000201D105C41EA002000B2A8F80400A01DFE
:104BB000C4B2B6F9000040F0080030801F484089B8
:104BC00000F4C07008B305A9601C085C095D40EAE8
:104BD000012000B2388005A9E01C095C05AAA01CD0
:104BE000105C41EA002000B2788005A9601D095CD4
:104BF000201D105C41EA002000B2B880A01DC4B2A4
:104C0000B6F9000040F0700030800C48807A00F067
:104C1000030018B105A90819FFF7B4FE4846FDF7CF
:104C200054FD002012E7014604480160002070474F
:104C3000014602484160002070470000A0050020A6
:104C400010B54FF40C7004F0CFFD5E4908604FF4CE
:104C50000C7004F0C9FD5B4948604FF40A7004F021
:104C6000C3FD594908604FF40A7004F0BDFD57496F
:104C700008604FF4007004F0B7FD554908605148D2
:104C8000006868B14F48406850B14F48006838B17B
:104C90004E48006820B10846006808B1002010BDE9
:104CA0000120FCE70146412901DA084670476129E5
:104CB00003DBA1F12000C0B2F8E70846F6E72DE9D2
:104CC000FC4105460027002405E0601CC4B228789A
:104CD00000B902E06D1CFA2CF7DB00BFFA2C02D100
:104CE000FF20BDE8FC81002408E06D1E28782E28F6
:104CF00002D16D1C2F4603E0601CC4B2052CF4DB0E
:104D000000BF3946684607F0B9FF002407E01DF8E8
:104D10000400FFF7C7FF0DF80400601CC4B2042CA8
:104D2000F5DB002425E000261EE004EB840000EB08
:104D3000C400284901EB800050F82600007800B933
:104D400014E004EB840101EBC401224A02EB81016F
:104D500051F82600694607F076FF18B946EA0410B4
:104D6000C0B2BEE7701CC6B20D2EDEDB00BF601CF9
:104D7000C4B2062CD7DBFF20B3E72DE9FC4707467A
:104D80000C461546002000908046814601AA6946DF
:104D9000384602F0DAFC06468EB901984069801E5A
:104DA0000199897800FB01F901988078009900FB4E
:104DB00001F84FEA590020604FEA58002860304659
:104DC000BDE8FC87B8020020C0020020C402002019
:104DD000D00200208001002070B504460D46F7493E
:104DE0002A460868214601F08AFF70BD70B5044666
:104DF0000D462A462146F248006801F0ABFF064600
:104E0000304670BD10B5EE48006802F095FA0020FB
:104E100010BD2DE9F047044600260027E9A008F060
:104E20003BFCB14625E0ED4B4FF40072EC480168C5
:104E3000E348006802F04EF8064626B13146E9A084
:104E400008F02AFC1BE0E5480088384487B20025BA
:104E500007E0E3480068415DE6A008F01DFC681C1F
:104E600085B2DE4800688542F3D309F101001FFADC
:104E700080F9E11704EBD151B9EB612FD3DB00BF0F
:104E8000E11704EBD1514912A4EB412131B3A04603
:104E9000E01704EBD0504012A4EB4022CF4BD04897
:104EA0000168C748006802F015F8064626B1314689
:104EB000D1A008F0F1FB11E0C8480088384487B25F
:104EC000002507E0C6480068415DCAA008F0E4FB81
:104ED000681C85B2C14800688542F3D31FB13946CA
:104EE000CAA008F0D9FBCFA008F0D6FB3046BDE839
:104EF000F08770B505460E46CFA008F0CDFB3146D1
:104F0000D3A008F0C9FBD74B32462946AC4800680D
:104F100002F0C1F8044624B12146D3A008F0BCFB3E
:104F200004E0D0480168D5A008F0B6FBD9A008F08D
:104F3000B3FB204670BD10B504462146DA4802F0A6
:104F400052FB10BD10B5D84802F091FB10BD70B5F2
:104F500040F2FF10D549C861C86904F045FCD34947
:104F60008861D14802F08EFB044614B9CF48407ADC
:104F700028B9CE49886904F02BFC204670BDCB4887
:104F80008069007810B1C948806901E0C7480930DC
:104F90000546C7A008F080FBC3488188C8A008F078
:104FA0007BFBC148C188C9A008F076FBBE48816878
:104FB000CAA008F071FBBC48C168CCA008F06CFB2B
:104FC000B9480169CDA008F067FB83A008F064FB35
:104FD0002946CEA008F060FBB4480168D0A008F0D4
:104FE0005BFBB2488188D3A008F056FBAF48C1886C
:104FF000D5A008F051FBAD48017AD8A008F04CFBD1
:1050000075A008F049FBA949886904F0E1FB00207C
:10501000B4E770B5054640F2FF10A449C861C869FD
:1050200004F0E2FBA149886129469F4802F0DBFABF
:1050300004460CBB68A008F02FFB1BE09B499A4874
:1050400002F020FB044614B99848407A00B912E0F7
:1050500096488069007810B19448806901E09348CF
:10506000093006462946C2A008F016FB3146C1A009
:1050700008F012FBE2E700BF8C49886904F0A8FB46
:10508000204670BD2DE9FC4106460020009000241A
:10509000002501AA6946304602F057FB0746002F5B
:1050A00019D101984069801E0199897800FB01F5AA
:1050B00001988078009900FB01F4B5F5A04F05D266
:1050C00062086908ADA008F0E7FA04E0E20AE90A1C
:1050D000B4A008F0E1FA2046BDE8FC8110B5044612
:1050E00021463748006802F037F910BD344800689F
:1050F0008068704732480068C068704710B5044641
:10510000204602F060FC10BD70B504460D46164600
:1051100032462946204602F06AFF70BD10B50446AB
:10512000204602F0EFFB10BD70B504460D4629463F
:10513000204602F075FD70BD30B587B004460020F2
:10514000019001AA02A9204602F007FE054655B9C2
:1051500002AA21469DA008F09FFA2146A1A0019A2B
:1051600008F09AFA03E02946A4A008F095FA07B0DF
:1051700030BD70B50446204602F04EFE054625B906
:105180002146A4A008F088FA03E02946A7A008F069
:1051900083FA70BD70B5044609482146026810487C
:1051A000006803F035FA0546287800B970BD294635
:1051B000A6A008F071FA00BFF8E70000B8020020CE
:1051C000C00200200D0A526561642066696C65208A
:1051D000646174612069733A0D0A0000C8020020FE
:1051E000D002002052656164204572726F723A25C8
:1051F000640D0A00256300000D0A526561642045B4
:1052000072726F723A25640D0A0000000D0A526531
:10521000616465642064617461206C656E3A256424
:105220000D0A0000526561642064617461206F762C
:1052300065720D0A000000000D0A426567696E2064
:1052400057726974652066696C652E2E2E0D0A00F2
:1052500057726974652064617461206C656E3A25CB
:10526000640D0A00CC0200205772697465204572F3
:10527000726F723A25640D0A00000000577269745B
:1052800065642064617461206C656E3A25640D0A62
:105290000000000057726974652064617461206FBA
:1052A0007665722E0D0A0000D0050020B0050020A2
:1052B0000D0A2044495220696E666F3A0D0A0000BB
:1052C0006469722E69643A25640D0A006469722E5D
:1052D000696E6465783A25640D0A00006469722E6F
:1052E00073636C7573743A25640D0A006469722ED9
:1052F000636C7573743A25640D0A00006469722E3C
:10530000736563743A25640D0A00000046696C6594
:10531000204E616D652069733A25730D0A00000007
:1053200046696C652053697A652069733A25640D76
:105330000A00000046696C6520646174612069732D
:105340003A25640D0A00000046696C652074696D99
:10535000652069733A25640D0A00000046696C6592
:1053600020417474722069733A25640D0A000000AC
:1053700025732F0025730D0A000000000D0AB4C527
:10538000C5CCD7DCC8DDC1BF3A2564204B420D0A2D
:10539000BFC9D3C3BFD5BCE43A2564204B420D0A34
:1053A000000000000D0AB4C5C5CCD7DCC8DDC1BF04
:1053B0003A2564204D420D0ABFC9D3C3BFD5BCE412
:1053C0003A2564204D420D0A000000000D0AB4C5C4
:1053D000C5CC257320B5C4C5CCB7FBCEAA3A25737E
:1053E0000D0A0000B4C5C5CC257320B5C4D0F2C1E8
:1053F000D0BAC53A25580D0A0D0A00000D0ABBF1B6
:10540000C8A1CAA7B0DCA3ACB4EDCEF3C2EB3A2579
:10541000580D0A000D0AB4C5C5CCC5CCB7FBC9E808
:10542000D6C3B3C9B9A63A25730D0A000D0AB4C58F
:10543000C5CCC5CCB7FBC9E8D6C3CAA7B0DCA3AC02
:10544000B4EDCEF3C2EB3A25580D0A000D0A5468AC
:105450006520537472696E672052656164656420CB
:1054600049733A25730D0A0010B5044607480168D0
:10547000204603F018F9C0B210BD10B50446034829
:105480000168204603F02FF9C0B210BDC002002011
:105490002DE9F04102460F46802A01DA10462FE03E
:1054A0001FB1244B45F2205602E0234B45F2205613
:1054B0000025102416E0A6EB050C0CEBDC7805EBC0
:1054C00068014FEA410C33F81CC0944500D10BE051
:1054D0004FEA410C33F81CC0944501DA0D4600E058
:1054E0000E46641E002CE6D100BF34B14FF0010C13
:1054F0000CEB410C33F81CC001E04FF0000C60468F
:10550000BDE8F0810246002100E0491C0B4830F85C
:10551000110020B1094830F811009042F5D1074838
:1055200030F8110018B1064830F8110070471046E5
:10553000FCE70000924E02080EFA000816A30308CA
:10554000F6A4030870B50446002514B1012C1DD142
:105550000BE003F0ECFE054635B103F0A3FDFF20A0
:1055600003F09AFD03F0A3FD12E003F053FA704834
:1055700000884EF61671884204D142F268606D4987
:10558000088002E000206B49088001E0012500BF8F
:1055900000BF0DB1012070BD0020FCE701460020D6
:1055A00070472DE9F04107460E4615461C464FF060
:1055B000000814B90420BDE8F08117B1012F20D1F3
:1055C00010E0E2B22946304603F078FF8046B8F199
:1055D000000F06D003F066FDFF2003F05DFD03F031
:1055E00066FD11E009E069024FF40072304603F0F5
:1055F0006BFA6D1C06F50076641E002CF3D1A046F4
:1056000002E04FF0010800BF00BFB8F1000F01D168
:105610000020D0E70120CEE72DE9F04107460E46F5
:1056200015461C464FF0000814B90420BDE8F0816F
:1056300017B1012F16D106E0E2B22946304603F039
:1056400075FF804611E009E069024FF400723046B0
:1056500003F0D2FA6D1C06F50076641E002CF3D11F
:10566000A04602E04FF0010800BF00BFB8F1000FF4
:1056700001D10020DAE70120D8E72DE9F041064604
:105680000F4615462EBB37B1012F1AD0022F0FD06F
:10569000032F1BD111E000202749086003F030FDE3
:1056A00008B9002400E001240120234908600FE02C
:1056B0004FF40070288000240AE00820288000248D
:1056C00006E003F0F9FD2860002401E0042400BF97
:1056D0001DE0012E1AD137B1012F0FD0022F04D0B7
:1056E000032F10D106E000240FE04FF40070288053
:1056F00000240AE008202880002406E00D480088E5
:105700002860002401E0042400BF00E001242046BA
:10571000BDE8F0810020704710B50446204604F033
:1057200063F810BD10B50446204604F051F810BDD2
:10573000E2020020D40200209001214270B503460D
:105740000C4603E014F8015B03F8015B1500A2F1BD
:105750000102F7D170BD30B5034601E003F8011B2B
:105760001400A2F10102F9D130BDF0B503461C4688
:105770000D46002000BF1600A2F1010207D014F868
:10578000017B15F801CBA7EB0C063000F3D0F0BD80
:10579000024600E0521C107810B110788842F9D10E
:1057A0001078704770B504462079F8B1E56A6078E2
:1057B00001232A4604F13001FFF72EFF08B1012032
:1057C00070BD00202071206A281AA16988420DD27C
:1057D000E67809E0A0690544607801232A4604F1CF
:1057E0003001FFF719FF761E022EF3D20020E7E703
:1057F00070B504460D46E06AA84210D02046FFF777
:10580000D1FF08B1012070BD607801232A4604F160
:105810003001FFF7C6FE08B10120F4E7E562002081
:10582000F1E770B504462046FFF7BCFF0546002DA2
:1058300059D1207803284FD1607901284CD14202F8
:10584000002104F13000FFF786FF552184F82E1265
:10585000AA2184F82F12522084F8300052213120DE
:10586000015561213220015541213320015572211A
:1058700084F8141284F81512412184F8161261215B
:1058800084F81712217C84F81812208A010A84F8FF
:1058900019122069010C84F81A122069010E84F88B
:1058A0001B12217B84F81C12A089010A84F81D12A6
:1058B000E068010C84F81E12E068010E84F81F12E3
:1058C000E069401CE0626078012304F13001E26A83
:1058D000FFF7A2FE00206071607800221146FFF7FA
:1058E000CCFE00B10125284670BD0246891E5069D4
:1058F000801E884201D8002070479378906A01FB8F
:105900000300F9E72DE9F04105460C46022C02D3CD
:105910006869A04202D80120BDE8F08128780128FA
:1059200004D002282CD003285AD13DE0274607EBAB
:105930005707286A00EB57212846FFF759FF00B1A7
:1059400050E0C7F3080105F1300010F801807F1C1A
:10595000286A00EB57212846FFF74AFF00B141E0D3
:10596000C7F3080105F13000405C48EA002804F064
:10597000010010B14FEA1810CEE7C8F30B00CBE7D7
:10598000286A00EB14212846FFF732FF00B129E016
:1059900040F2FF1000EA440105F130000E183078A3
:1059A000717840EA0120B7E7286A00EBD411284655
:1059B000FFF71EFF00B115E040F2FF1000EA84017E
:1059C00005F130000E18F0780006B17840EA014089
:1059D000717840EA01203178084320F070409BE75D
:1059E000012099E700BF4FF0FF3095E72DE9F04720
:1059F00005460E461746022E02D36869B04202D809
:105A00004FF002088AE02878012804D0022841D00B
:105A100003287DD154E0B14609EB5909286A00EB0F
:105A200059212846FFF7E4FE8046B8F1000F00D068
:105A300071E0C9F3080105F130000C1806F001000F
:105A400020B1F9B2207861F31F1000E038462070D1
:105A500009F1010901202871286A00EB5921284623
:105A6000FFF7C6FE8046B8F1000F00D053E0C9F33F
:105A7000080105F130000C1806F0010010B1C7F361
:105A8000071005E0207800F0F000C7F30321084379
:105A9000207040E0286A00EB16212846FFF7A8FE98
:105AA0008046B8F1000F00D035E040F2FF1000EA68
:105AB000460105F130000C182770380A60702AE0A2
:105AC000286A00EBD6112846FFF792FE8046B8F10F
:105AD000000F00D01FE040F2FF1000EA860105F140
